{"contracts/erc1155.sol":{"MyToken":{"abi":[{"inputs":[],"name":"AccessControlBadConfirmation","type":"error"},{"inputs":[{"internalType":"address","name":"account","type":"address"},{"internalType":"bytes32","name":"neededRole","type":"bytes32"}],"name":"AccessControlUnauthorizedAccount","type":"error"},{"inputs":[{"internalType":"address","name":"sender","type":"address"},{"internalType":"uint256","name":"balance","type":"uint256"},{"internalType":"uint256","name":"needed","type":"uint256"},{"internalType":"uint256","name":"tokenId","type":"uint256"}],"name":"ERC1155InsufficientBalance","type":"error"},{"inputs":[{"internalType":"address","name":"approver","type":"address"}],"name":"ERC1155InvalidApprover","type":"error"},{"inputs":[{"internalType":"uint256","name":"idsLength","type":"uint256"},{"internalType":"uint256","name":"valuesLength","type":"uint256"}],"name":"ERC1155InvalidArrayLength","type":"error"},{"inputs":[{"internalType":"address","name":"operator","type":"address"}],"name":"ERC1155InvalidOperator","type":"error"},{"inputs":[{"internalType":"address","name":"receiver","type":"address"}],"name":"ERC1155InvalidReceiver","type":"error"},{"inputs":[{"internalType":"address","name":"sender","type":"address"}],"name":"ERC1155InvalidSender","type":"error"},{"inputs":[{"internalType":"address","name":"operator","type":"address"},{"internalType":"address","name":"owner","type":"address"}],"name":"ERC1155MissingApprovalForAll","type":"error"},{"inputs":[],"name":"InvalidInitialization","type":"error"},{"inputs":[],"name":"NotInitializing","type":"error"},{"anonymous":false,"inputs":[{"indexed":true,"internalType":"address","name":"account","type":"address"},{"indexed":true,"internalType":"address","name":"operator","type":"address"},{"indexed":false,"internalType":"bool","name":"approved","type":"bool"}],"name":"ApprovalForAll","type":"event"},{"anonymous":false,"inputs":[{"indexed":false,"internalType":"uint64","name":"version","type":"uint64"}],"name":"Initialized","type":"event"},{"anonymous":false,"inputs":[{"indexed":true,"internalType":"bytes32","name":"role","type":"bytes32"},{"indexed":true,"internalType":"bytes32","name":"previousAdminRole","type":"bytes32"},{"indexed":true,"internalType":"bytes32","name":"newAdminRole","type":"bytes32"}],"name":"RoleAdminChanged","type":"event"},{"anonymous":false,"inputs":[{"indexed":true,"internalType":"bytes32","name":"role","type":"bytes32"},{"indexed":true,"internalType":"address","name":"account","type":"address"},{"indexed":true,"internalType":"address","name":"sender","type":"address"}],"name":"RoleGranted","type":"event"},{"anonymous":false,"inputs":[{"indexed":true,"internalType":"bytes32","name":"role","type":"bytes32"},{"indexed":true,"internalType":"address","name":"account","type":"address"},{"indexed":true,"internalType":"address","name":"sender","type":"address"}],"name":"RoleRevoked","type":"event"},{"anonymous":false,"inputs":[{"indexed":true,"internalType":"address","name":"operator","type":"address"},{"indexed":true,"internalType":"address","name":"from","type":"address"},{"indexed":true,"internalType":"address","name":"to","type":"address"},{"indexed":false,"internalType":"uint256[]","name":"ids","type":"uint256[]"},{"indexed":false,"internalType":"uint256[]","name":"values","type":"uint256[]"}],"name":"TransferBatch","type":"event"},{"anonymous":false,"inputs":[{"indexed":true,"internalType":"address","name":"operator","type":"address"},{"indexed":true,"internalType":"address","name":"from","type":"address"},{"indexed":true,"internalType":"address","name":"to","type":"address"},{"indexed":false,"internalType":"uint256","name":"id","type":"uint256"},{"indexed":false,"internalType":"uint256","name":"value","type":"uint256"}],"name":"TransferSingle","type":"event"},{"anonymous":false,"inputs":[{"indexed":false,"internalType":"string","name":"value","type":"string"},{"indexed":true,"internalType":"uint256","name":"id","type":"uint256"}],"name":"URI","type":"event"},{"inputs":[],"name":"DEFAULT_ADMIN_ROLE","outputs":[{"internalType":"bytes32","name":"","type":"bytes32"}],"stateMutability":"view","type":"function"},{"inputs":[],"name":"MANAGER","outputs":[{"internalType":"bytes32","name":"","type":"bytes32"}],"stateMutability":"view","type":"function"},{"inputs":[{"internalType":"address","name":"account","type":"address"},{"internalType":"uint256","name":"id","type":"uint256"}],"name":"balanceOf","outputs":[{"internalType":"uint256","name":"","type":"uint256"}],"stateMutability":"view","type":"function"},{"inputs":[{"internalType":"address[]","name":"accounts","type":"address[]"},{"internalType":"uint256[]","name":"ids","type":"uint256[]"}],"name":"balanceOfBatch","outputs":[{"internalType":"uint256[]","name":"","type":"uint256[]"}],"stateMutability":"view","type":"function"},{"inputs":[{"internalType":"address","name":"account","type":"address"},{"internalType":"uint256","name":"id","type":"uint256"},{"internalType":"uint256","name":"value","type":"uint256"}],"name":"burn","outputs":[],"stateMutability":"nonpayable","type":"function"},{"inputs":[{"internalType":"address","name":"account","type":"address"},{"internalType":"uint256[]","name":"ids","type":"uint256[]"},{"internalType":"uint256[]","name":"values","type":"uint256[]"}],"name":"burnBatch","outputs":[],"stateMutability":"nonpayable","type":"function"},{"inputs":[{"internalType":"address","name":"account","type":"address"},{"internalType":"uint256","name":"amount","type":"uint256"},{"internalType":"string","name":"_uri","type":"string"},{"internalType":"bytes","name":"data","type":"bytes"}],"name":"create","outputs":[],"stateMutability":"nonpayable","type":"function"},{"inputs":[{"internalType":"uint256","name":"id","type":"uint256"}],"name":"exists","outputs":[{"internalType":"bool","name":"","type":"bool"}],"stateMutability":"view","type":"function"},{"inputs":[{"internalType":"bytes32","name":"role","type":"bytes32"}],"name":"getRoleAdmin","outputs":[{"internalType":"bytes32","name":"","type":"bytes32"}],"stateMutability":"view","type":"function"},{"inputs":[{"internalType":"bytes32","name":"role","type":"bytes32"},{"internalType":"address","name":"account","type":"address"}],"name":"grantRole","outputs":[],"stateMutability":"nonpayable","type":"function"},{"inputs":[{"internalType":"bytes32","name":"role","type":"bytes32"},{"internalType":"address","name":"account","type":"address"}],"name":"hasRole","outputs":[{"internalType":"bool","name":"","type":"bool"}],"stateMutability":"view","type":"function"},{"inputs":[{"internalType":"address","name":"defaultAdmin","type":"address"},{"internalType":"address","name":"manager","type":"address"},{"internalType":"string","name":"_name","type":"string"},{"internalType":"string","name":"_symbol","type":"string"}],"name":"initialize","outputs":[],"stateMutability":"nonpayable","type":"function"},{"inputs":[{"internalType":"address","name":"account","type":"address"},{"internalType":"address","name":"operator","type":"address"}],"name":"isApprovedForAll","outputs":[{"internalType":"bool","name":"","type":"bool"}],"stateMutability":"view","type":"function"},{"inputs":[{"internalType":"address","name":"account","type":"address"},{"internalType":"uint256","name":"id","type":"uint256"},{"internalType":"uint256","name":"amount","type":"uint256"},{"internalType":"bytes","name":"data","type":"bytes"}],"name":"mint","outputs":[],"stateMutability":"nonpayable","type":"function"},{"inputs":[{"internalType":"address","name":"to","type":"address"},{"internalType":"uint256[]","name":"ids","type":"uint256[]"},{"internalType":"uint256[]","name":"amounts","type":"uint256[]"},{"internalType":"bytes","name":"data","type":"bytes"}],"name":"mintBatch","outputs":[],"stateMutability":"nonpayable","type":"function"},{"inputs":[{"internalType":"bytes32","name":"role","type":"bytes32"},{"internalType":"address","name":"callerConfirmation","type":"address"}],"name":"renounceRole","outputs":[],"stateMutability":"nonpayable","type":"function"},{"inputs":[{"internalType":"bytes32","name":"role","type":"bytes32"},{"internalType":"address","name":"account","type":"address"}],"name":"revokeRole","outputs":[],"stateMutability":"nonpayable","type":"function"},{"inputs":[{"internalType":"address","name":"from","type":"address"},{"internalType":"address","name":"to","type":"address"},{"internalType":"uint256[]","name":"ids","type":"uint256[]"},{"internalType":"uint256[]","name":"values","type":"uint256[]"},{"internalType":"bytes","name":"data","type":"bytes"}],"name":"safeBatchTransferFrom","outputs":[],"stateMutability":"nonpayable","type":"function"},{"inputs":[{"internalType":"address","name":"from","type":"address"},{"internalType":"address","name":"to","type":"address"},{"internalType":"uint256","name":"id","type":"uint256"},{"internalType":"uint256","name":"value","type":"uint256"},{"internalType":"bytes","name":"data","type":"bytes"}],"name":"safeTransferFrom","outputs":[],"stateMutability":"nonpayable","type":"function"},{"inputs":[{"internalType":"address","name":"operator","type":"address"},{"internalType":"bool","name":"approved","type":"bool"}],"name":"setApprovalForAll","outputs":[],"stateMutability":"nonpayable","type":"function"},{"inputs":[{"internalType":"string","name":"newuri","type":"string"}],"name":"setURI","outputs":[],"stateMutability":"nonpayable","type":"function"},{"inputs":[{"internalType":"bytes4","name":"interfaceId","type":"bytes4"}],"name":"supportsInterface","outputs":[{"internalType":"bool","name":"","type":"bool"}],"stateMutability":"view","type":"function"},{"inputs":[],"name":"t11","outputs":[{"internalType":"uint256","name":"","type":"uint256"}],"stateMutability":"view","type":"function"},{"inputs":[],"name":"totalSupply","outputs":[{"internalType":"uint256","name":"","type":"uint256"}],"stateMutability":"view","type":"function"},{"inputs":[{"internalType":"uint256","name":"id","type":"uint256"}],"name":"totalSupply","outputs":[{"internalType":"uint256","name":"","type":"uint256"}],"stateMutability":"view","type":"function"},{"inputs":[{"internalType":"uint256","name":"tokenId","type":"uint256"},{"internalType":"string","name":"newuri","type":"string"}],"name":"updateUri","outputs":[],"stateMutability":"nonpayable","type":"function"},{"inputs":[{"internalType":"uint256","name":"tokenId","type":"uint256"}],"name":"uri","outputs":[{"internalType":"string","name":"","type":"string"}],"stateMutability":"view","type":"function"}],"evm":{"bytecode":{"linkReferences":{},"object":"608060405234801561001057600080fd5b50612486806100206000396000f3fe608060405234801561001057600080fd5b50600436106101a85760003560e01c80634e1273f4116100f9578063aa83587111610097578063e38e3b2411610071578063e38e3b24146103fc578063e985e9c51461040f578063f242432a14610422578063f5298aca1461043557600080fd5b8063aa835871146103a1578063bd85b039146103aa578063d547741f146103e957600080fd5b8063731133e9116100d3578063731133e91461036057806391d1485414610373578063a217fddf14610386578063a22cb4651461038e57600080fd5b80634e1273f4146102ec5780634f558e791461030c5780636b20c4541461034d57600080fd5b80631b2df85011610166578063248a9ca311610140578063248a9ca3146102a05780632eb2c2d6146102b35780632f2ff15d146102c657806336568abe146102d957600080fd5b80631b2df850146102655780631f7fdffa1461027a5780632016a0d21461028d57600080fd5b8062fdd58e146101ad57806301ffc9a7146101d357806302fe5305146101f6578063057512041461020b5780630e89341c1461021e57806318160ddd1461023e575b600080fd5b6101c06101bb366004611923565b610448565b6040519081526020015b60405180910390f35b6101e66101e1366004611963565b61047f565b60405190151581526020016101ca565b610209610204366004611a3c565b61048a565b005b610209610219366004611a78565b6104bc565b61023161022c366004611abe565b61056b565b6040516101ca9190611b27565b7f4a593662ee04d27b6a00ebb31be7fe0c102c2ade82a7c5d764f2df05dc4e2801546101c0565b6101c06000805160206123f183398151915281565b610209610288366004611bcc565b61073e565b61020961029b366004611c64565b6107bc565b6101c06102ae366004611abe565b61097b565b6102096102c1366004611cb9565b61099d565b6102096102d4366004611d62565b610a04565b6102096102e7366004611d62565b610a20565b6102ff6102fa366004611d8e565b610a53565b6040516101ca9190611e7f565b6101e661031a366004611abe565b60009081527f4a593662ee04d27b6a00ebb31be7fe0c102c2ade82a7c5d764f2df05dc4e28006020526040902054151590565b61020961035b366004611e92565b610b1f565b61020961036e366004611f05565b610bc4565b6101e6610381366004611d62565b610c0d565b6101c0600081565b61020961039c366004611f59565b610c45565b6101c060045481565b6101c06103b8366004611abe565b60009081527f4a593662ee04d27b6a00ebb31be7fe0c102c2ade82a7c5d764f2df05dc4e2800602052604090205490565b6102096103f7366004611d62565b610c54565b61020961040a366004611f95565b610c70565b6101e661041d366004611fd7565b610cc7565b610209610430366004612001565b610d14565b610209610443366004612065565b610d73565b6000818152600080516020612411833981519152602090815260408083206001600160a01b03861684529091529020545b92915050565b600061047982610dce565b6000805160206123f18339815191526104a281610df3565b6104ab82610e00565b60036104b7838261211a565b505050565b6000805160206123f18339815191526104d481610df3565b6104dd83610e3a565b61054d5760405162461bcd60e51b815260206004820152603660248201527f455243313135354d657461646174613a20757064617465557269207175657279604482015275103337b9103737b732bc34b9ba32b73a103a37b5b2b760511b60648201526084015b60405180910390fd5b6000838152600560205260409020610565838261211a565b50505050565b606061057682610e3a565b6105db5760405162461bcd60e51b815260206004820152603060248201527f455243313135354d657461646174613a2055524920717565727920666f72206e60448201526f37b732bc34b9ba32b73a103a37b5b2b760811b6064820152608401610544565b600082815260056020526040812080546105f490612098565b80601f016020809104026020016040519081016040528092919081815260200182805461062090612098565b801561066d5780601f106106425761010080835404028352916020019161066d565b820191906000526020600020905b81548152906001019060200180831161065057829003601f168201915b5050505050905060006003805461068390612098565b80601f01602080910402602001604051908101604052809291908181526020018280546106af90612098565b80156106fc5780601f106106d1576101008083540402835291602001916106fc565b820191906000526020600020905b8154815290600101906020018083116106df57829003601f168201915b505050505090508051600003610713575092915050565b80826040516020016107269291906121d9565b60405160208183030381529060405292505050919050565b6000805160206123f183398151915261075681610df3565b60005b84518110156107a85761078485828151811061077757610777612208565b6020026020010151610e3a565b6107a05760405162461bcd60e51b81526004016105449061221e565b600101610759565b506107b585858585610e4f565b5050505050565b60006107c6610e87565b805490915060ff600160401b82041615906001600160401b03166000811580156107ed5750825b90506000826001600160401b031660011480156108095750303b155b905081158015610817575080155b156108355760405163f92ee8a960e01b815260040160405180910390fd5b845467ffffffffffffffff19166001178555831561085f57845460ff60401b1916600160401b1785555b6108946040518060400160405280601481526020017368747470733a2f2f68656c6c6f2f776f726c642f60601b815250610eb0565b61089c610ec1565b6108a4610ec1565b6108ac610ec1565b60006108b8888261211a565b5060016108c5878261211a565b5060408051808201909152601481527368747470733a2f2f68656c6c6f2f776f726c642f60601b60208201526003906108fe908261211a565b5060006002819055610910908a610ecb565b506109296000805160206123f183398151915289610ecb565b50831561097057845460ff60401b19168555604051600181527fc7f505b2f371ae2175ee4913f4499e1f2633a7b5936321eed1cdaeb6115181d29060200160405180910390a15b505050505050505050565b6000908152600080516020612431833981519152602052604090206001015490565b336001600160a01b03861681148015906109be57506109bc8682610cc7565b155b156109ef5760405163711bec9160e11b81526001600160a01b03808316600483015287166024820152604401610544565b6109fc8686868686610f70565b505050505050565b610a0d8261097b565b610a1681610df3565b6105658383610ecb565b6001600160a01b0381163314610a495760405163334bd91960e11b815260040160405180910390fd5b6104b78282610fd0565b60608151835114610a845781518351604051635b05999160e01b815260048101929092526024820152604401610544565b600083516001600160401b03811115610a9f57610a9f611987565b604051908082528060200260200182016040528015610ac8578160200160208202803683370190505b50905060005b8451811015610b1757602080820286010151610af290602080840287010151610448565b828281518110610b0457610b04612208565b6020908102919091010152600101610ace565b509392505050565b60005b8251811015610b6457610b4083828151811061077757610777612208565b610b5c5760405162461bcd60e51b81526004016105449061226f565b600101610b22565b506001600160a01b0383163314801590610b855750610b838333610cc7565b155b15610bb957335b60405163711bec9160e11b81526001600160a01b0391821660048201529084166024820152604401610544565b6104b783838361104c565b6000805160206123f1833981519152610bdc81610df3565b610be584610e3a565b610c015760405162461bcd60e51b81526004016105449061221e565b6107b585858585611092565b6000918252600080516020612431833981519152602090815260408084206001600160a01b0393909316845291905290205460ff1690565b610c503383836110ef565b5050565b610c5d8261097b565b610c6681610df3565b6105658383610fd0565b6000805160206123f1833981519152610c8881610df3565b60028054906000610c98836122d6565b90915550506002546000908152600560205260409020610cb8848261211a565b506107b5856002548685611092565b6001600160a01b0391821660009081527f88be536d5240c274a3b1d3a1be54482fd9caa294f08c62a7cde569f49a3c45016020908152604080832093909416825291909152205460ff1690565b336001600160a01b0386168114801590610d355750610d338682610cc7565b155b15610d665760405163711bec9160e11b81526001600160a01b03808316600483015287166024820152604401610544565b6109fc8686868686611197565b610d7c82610e3a565b610d985760405162461bcd60e51b81526004016105449061226f565b6001600160a01b0383163314801590610db85750610db68333610cc7565b155b15610dc35733610b8c565b6104b7838383611225565b60006001600160e01b03198216637965db0b60e01b148061047957506104798261128d565b610dfd81336112dd565b50565b6000805160206124118339815191527f88be536d5240c274a3b1d3a1be54482fd9caa294f08c62a7cde569f49a3c45026104b7838261211a565b60008082118015610479575050600254101590565b6001600160a01b038416610e7957604051632bfa23e760e11b815260006004820152602401610544565b610565600085858585611316565b6000807ff0c57e16840df040f15088dc2f81fe391c3923bec73e23a9662efc9c229c6a00610479565b610eb8611369565b610dfd8161138e565b610ec9611369565b565b6000600080516020612431833981519152610ee68484610c0d565b610f66576000848152602082815260408083206001600160a01b03871684529091529020805460ff19166001179055610f1c3390565b6001600160a01b0316836001600160a01b0316857f2f8788117e7eff1d82e926ec794901d17c78024a50270940304540a733656f0d60405160405180910390a46001915050610479565b6000915050610479565b6001600160a01b038416610f9a57604051632bfa23e760e11b815260006004820152602401610544565b6001600160a01b038516610fc357604051626a0d4560e21b815260006004820152602401610544565b6107b58585858585611316565b6000600080516020612431833981519152610feb8484610c0d565b15610f66576000848152602082815260408083206001600160a01b0387168085529252808320805460ff1916905551339287917ff6391f5c32d9c69d2a47ea670b442974b53935d1edc7fd64eb21e047a839171b9190a46001915050610479565b6001600160a01b03831661107557604051626a0d4560e21b815260006004820152602401610544565b6104b7836000848460405180602001604052806000815250611316565b6001600160a01b0384166110bc57604051632bfa23e760e11b815260006004820152602401610544565b604080516001808252602082018690528183019081526060820185905260808201909252906109fc600087848487611316565b6000805160206124118339815191526001600160a01b0383166111275760405162ced3e160e81b815260006004820152602401610544565b6001600160a01b038481166000818152600184016020908152604080832094881680845294825291829020805460ff191687151590811790915591519182527f17307eab39ab6107e8899845ad3d59bd9653f200f220920489ca2b5937696c31910160405180910390a350505050565b6001600160a01b0384166111c157604051632bfa23e760e11b815260006004820152602401610544565b6001600160a01b0385166111ea57604051626a0d4560e21b815260006004820152602401610544565b6040805160018082526020820186905281830190815260608201859052608082019092529061121c8787848487611316565b50505050505050565b6001600160a01b03831661124e57604051626a0d4560e21b815260006004820152602401610544565b604080516001808252602082018590528183019081526060820184905260a082019092526000608082018181529192916107b591879185908590611316565b60006001600160e01b03198216636cdb3d1360e11b14806112be57506001600160e01b031982166303a24d0760e21b145b8061047957506301ffc9a760e01b6001600160e01b0319831614610479565b6112e78282610c0d565b610c505760405163e2517d3f60e01b81526001600160a01b038216600482015260248101839052604401610544565b6113228585858561139f565b6001600160a01b038416156107b5578251339060010361135b57602084810151908401516113548389898585896113ab565b50506109fc565b6109fc8187878787876114cf565b6113716115b8565b610ec957604051631afcd79f60e31b815260040160405180910390fd5b611396611369565b610dfd81610e00565b610565848484846115d2565b6001600160a01b0384163b156109fc5760405163f23a6e6160e01b81526001600160a01b0385169063f23a6e61906113ef90899089908890889088906004016122ef565b6020604051808303816000875af192505050801561142a575060408051601f3d908101601f1916820190925261142791810190612334565b60015b611493573d808015611458576040519150601f19603f3d011682016040523d82523d6000602084013e61145d565b606091505b50805160000361148b57604051632bfa23e760e11b81526001600160a01b0386166004820152602401610544565b805181602001fd5b6001600160e01b0319811663f23a6e6160e01b1461121c57604051632bfa23e760e11b81526001600160a01b0386166004820152602401610544565b6001600160a01b0384163b156109fc5760405163bc197c8160e01b81526001600160a01b0385169063bc197c81906115139089908990889088908890600401612351565b6020604051808303816000875af192505050801561154e575060408051601f3d908101601f1916820190925261154b91810190612334565b60015b61157c573d808015611458576040519150601f19603f3d011682016040523d82523d6000602084013e61145d565b6001600160e01b0319811663bc197c8160e01b1461121c57604051632bfa23e760e11b81526001600160a01b0386166004820152602401610544565b60006115c2610e87565b54600160401b900460ff16919050565b7f4a593662ee04d27b6a00ebb31be7fe0c102c2ade82a7c5d764f2df05dc4e28006115ff858585856116e2565b6001600160a01b038516611680576000805b8451811015611664576020818102858101820151908701820151600090815291859052604082208054919283926116499084906123af565b90915550611659905081846123af565b925050600101611611565b508082600101600082825461167991906123af565b9091555050505b6001600160a01b0384166107b5576000805b84518110156116ce5760208181028581018201519087018201516000908152918590526040909120805482900390559190910190600101611692565b506001820180549190910390555050505050565b8051825160008051602061241183398151915291146117215782518251604051635b05999160e01b815260048101929092526024820152604401610544565b3360005b8451811015611827576020818102868101820151908601909101516001600160a01b038916156117d8576000828152602086815260408083206001600160a01b038d168452909152902054818110156117b1576040516303dee4c560e01b81526001600160a01b038b166004820152602481018290526044810183905260648101849052608401610544565b6000838152602087815260408083206001600160a01b038e16845290915290209082900390555b6001600160a01b0388161561181d576000828152602086815260408083206001600160a01b038c168452909152812080548392906118179084906123af565b90915550505b5050600101611725565b5083516001036118a85760208401516000906020850151909150866001600160a01b0316886001600160a01b0316846001600160a01b03167fc3d58168c5ae7397731d063d5bbf3d657854427343f4c083240f7aacaa2d0f628585604051611899929190918252602082015260400190565b60405180910390a450506109fc565b846001600160a01b0316866001600160a01b0316826001600160a01b03167f4a39dc06d4c0dbc64b70af90fd698a233a518aa5d07e595d983b8c0526c8f7fb87876040516118f79291906123c2565b60405180910390a4505050505050565b80356001600160a01b038116811461191e57600080fd5b919050565b6000806040838503121561193657600080fd5b61193f83611907565b946020939093013593505050565b6001600160e01b031981168114610dfd57600080fd5b60006020828403121561197557600080fd5b81356119808161194d565b9392505050565b634e487b7160e01b600052604160045260246000fd5b604051601f8201601f191681016001600160401b03811182821017156119c5576119c5611987565b604052919050565b600082601f8301126119de57600080fd5b81356001600160401b038111156119f7576119f7611987565b611a0a601f8201601f191660200161199d565b818152846020838601011115611a1f57600080fd5b816020850160208301376000918101602001919091529392505050565b600060208284031215611a4e57600080fd5b81356001600160401b03811115611a6457600080fd5b611a70848285016119cd565b949350505050565b60008060408385031215611a8b57600080fd5b8235915060208301356001600160401b03811115611aa857600080fd5b611ab4858286016119cd565b9150509250929050565b600060208284031215611ad057600080fd5b5035919050565b60005b83811015611af2578181015183820152602001611ada565b50506000910152565b60008151808452611b13816020860160208601611ad7565b601f01601f19169290920160200192915050565b6020815260006119806020830184611afb565b60006001600160401b03821115611b5357611b53611987565b5060051b60200190565b600082601f830112611b6e57600080fd5b81356020611b83611b7e83611b3a565b61199d565b8083825260208201915060208460051b870101935086841115611ba557600080fd5b602086015b84811015611bc15780358352918301918301611baa565b509695505050505050565b60008060008060808587031215611be257600080fd5b611beb85611907565b935060208501356001600160401b0380821115611c0757600080fd5b611c1388838901611b5d565b94506040870135915080821115611c2957600080fd5b611c3588838901611b5d565b93506060870135915080821115611c4b57600080fd5b50611c58878288016119cd565b91505092959194509250565b60008060008060808587031215611c7a57600080fd5b611c8385611907565b9350611c9160208601611907565b925060408501356001600160401b0380821115611cad57600080fd5b611c35888389016119cd565b600080600080600060a08688031215611cd157600080fd5b611cda86611907565b9450611ce860208701611907565b935060408601356001600160401b0380821115611d0457600080fd5b611d1089838a01611b5d565b94506060880135915080821115611d2657600080fd5b611d3289838a01611b5d565b93506080880135915080821115611d4857600080fd5b50611d55888289016119cd565b9150509295509295909350565b60008060408385031215611d7557600080fd5b82359150611d8560208401611907565b90509250929050565b60008060408385031215611da157600080fd5b82356001600160401b0380821115611db857600080fd5b818501915085601f830112611dcc57600080fd5b81356020611ddc611b7e83611b3a565b82815260059290921b84018101918181019089841115611dfb57600080fd5b948201945b83861015611e2057611e1186611907565b82529482019490820190611e00565b96505086013592505080821115611e3657600080fd5b50611ab485828601611b5d565b60008151808452602080850194506020840160005b83811015611e7457815187529582019590820190600101611e58565b509495945050505050565b6020815260006119806020830184611e43565b600080600060608486031215611ea757600080fd5b611eb084611907565b925060208401356001600160401b0380821115611ecc57600080fd5b611ed887838801611b5d565b93506040860135915080821115611eee57600080fd5b50611efb86828701611b5d565b9150509250925092565b60008060008060808587031215611f1b57600080fd5b611f2485611907565b9350602085013592506040850135915060608501356001600160401b03811115611f4d57600080fd5b611c58878288016119cd565b60008060408385031215611f6c57600080fd5b611f7583611907565b915060208301358015158114611f8a57600080fd5b809150509250929050565b60008060008060808587031215611fab57600080fd5b611fb485611907565b93506020850135925060408501356001600160401b0380821115611cad57600080fd5b60008060408385031215611fea57600080fd5b611ff383611907565b9150611d8560208401611907565b600080600080600060a0868803121561201957600080fd5b61202286611907565b945061203060208701611907565b9350604086013592506060860135915060808601356001600160401b0381111561205957600080fd5b611d55888289016119cd565b60008060006060848603121561207a57600080fd5b61208384611907565b95602085013595506040909401359392505050565b600181811c908216806120ac57607f821691505b6020821081036120cc57634e487b7160e01b600052602260045260246000fd5b50919050565b601f8211156104b7576000816000526020600020601f850160051c810160208610156120fb5750805b601f850160051c820191505b818110156109fc57828155600101612107565b81516001600160401b0381111561213357612133611987565b612147816121418454612098565b846120d2565b602080601f83116001811461217c57600084156121645750858301515b600019600386901b1c1916600185901b1785556109fc565b600085815260208120601f198616915b828110156121ab5788860151825594840194600190910190840161218c565b50858210156121c95787850151600019600388901b60f8161c191681555b5050505050600190811b01905550565b600083516121eb818460208801611ad7565b8351908301906121ff818360208801611ad7565b01949350505050565b634e487b7160e01b600052603260045260246000fd5b60208082526031908201527f455243313135354d657461646174613a206d696e7420717565727920666f72206040820152703737b732bc34b9ba32b73a103a37b5b2b760791b606082015260800190565b60208082526031908201527f455243313135354d657461646174613a206275726e20717565727920666f72206040820152703737b732bc34b9ba32b73a103a37b5b2b760791b606082015260800190565b634e487b7160e01b600052601160045260246000fd5b6000600182016122e8576122e86122c0565b5060010190565b6001600160a01b03868116825285166020820152604081018490526060810183905260a06080820181905260009061232990830184611afb565b979650505050505050565b60006020828403121561234657600080fd5b81516119808161194d565b6001600160a01b0386811682528516602082015260a06040820181905260009061237d90830186611e43565b828103606084015261238f8186611e43565b905082810360808401526123a38185611afb565b98975050505050505050565b80820180821115610479576104796122c0565b6040815260006123d56040830185611e43565b82810360208401526123e78185611e43565b9594505050505056feaf290d8680820aad922855f39b306097b20e28774d6c1ad35a20325630c3a02c88be536d5240c274a3b1d3a1be54482fd9caa294f08c62a7cde569f49a3c450002dd7bc7dec4dceedda775e58dd541e08a116c6c53815c0bd028192f7b626800a2646970667358221220fb9a7e6298aeafc1f60b350abb3031db9a2f43e725633ec699a26e7b31c922d564736f6c63430008180033","opcodes":"PUSH1 0x80 PUSH1 0x40 MSTORE CALLVALUE DUP1 ISZERO PUSH2 0x10 JUMPI PUSH1 0x0 DUP1 REVERT JUMPDEST POP PUSH2 0x2486 DUP1 PUSH2 0x20 PUSH1 0x0 CODECOPY PUSH1 0x0 RETURN INVALID PUSH1 0x80 PUSH1 0x40 MSTORE CALLVALUE DUP1 ISZERO PUSH2 0x10 JUMPI PUSH1 0x0 DUP1 REVERT JUMPDEST POP PUSH1 0x4 CALLDATASIZE LT PUSH2 0x1A8 JUMPI PUSH1 0x0 CALLDATALOAD PUSH1 0xE0 SHR DUP1 PUSH4 0x4E1273F4 GT PUSH2 0xF9 JUMPI DUP1 PUSH4 0xAA835871 GT PUSH2 0x97 JUMPI DUP1 PUSH4 0xE38E3B24 GT PUSH2 0x71 JUMPI DUP1 PUSH4 0xE38E3B24 EQ PUSH2 0x3FC JUMPI DUP1 PUSH4 0xE985E9C5 EQ PUSH2 0x40F JUMPI DUP1 PUSH4 0xF242432A EQ PUSH2 0x422 JUMPI DUP1 PUSH4 0xF5298ACA EQ PUSH2 0x435 JUMPI PUSH1 0x0 DUP1 REVERT JUMPDEST DUP1 PUSH4 0xAA835871 EQ PUSH2 0x3A1 JUMPI DUP1 PUSH4 0xBD85B039 EQ PUSH2 0x3AA JUMPI DUP1 PUSH4 0xD547741F EQ PUSH2 0x3E9 JUMPI PUSH1 0x0 DUP1 REVERT JUMPDEST DUP1 PUSH4 0x731133E9 GT PUSH2 0xD3 JUMPI DUP1 PUSH4 0x731133E9 EQ PUSH2 0x360 JUMPI DUP1 PUSH4 0x91D14854 EQ PUSH2 0x373 JUMPI DUP1 PUSH4 0xA217FDDF EQ PUSH2 0x386 JUMPI DUP1 PUSH4 0xA22CB465 EQ PUSH2 0x38E JUMPI PUSH1 0x0 DUP1 REVERT JUMPDEST DUP1 PUSH4 0x4E1273F4 EQ PUSH2 0x2EC JUMPI DUP1 PUSH4 0x4F558E79 EQ PUSH2 0x30C JUMPI DUP1 PUSH4 0x6B20C454 EQ PUSH2 0x34D JUMPI PUSH1 0x0 DUP1 REVERT JUMPDEST DUP1 PUSH4 0x1B2DF850 GT PUSH2 0x166 JUMPI DUP1 PUSH4 0x248A9CA3 GT PUSH2 0x140 JUMPI DUP1 PUSH4 0x248A9CA3 EQ PUSH2 0x2A0 JUMPI DUP1 PUSH4 0x2EB2C2D6 EQ PUSH2 0x2B3 JUMPI DUP1 PUSH4 0x2F2FF15D EQ PUSH2 0x2C6 JUMPI DUP1 PUSH4 0x36568ABE EQ PUSH2 0x2D9 JUMPI PUSH1 0x0 DUP1 REVERT JUMPDEST DUP1 PUSH4 0x1B2DF850 EQ PUSH2 0x265 JUMPI DUP1 PUSH4 0x1F7FDFFA EQ PUSH2 0x27A JUMPI DUP1 PUSH4 0x2016A0D2 EQ PUSH2 0x28D JUMPI PUSH1 0x0 DUP1 REVERT JUMPDEST DUP1 PUSH3 0xFDD58E EQ PUSH2 0x1AD JUMPI DUP1 PUSH4 0x1FFC9A7 EQ PUSH2 0x1D3 JUMPI DUP1 PUSH4 0x2FE5305 EQ PUSH2 0x1F6 JUMPI DUP1 PUSH4 0x5751204 EQ PUSH2 0x20B JUMPI DUP1 PUSH4 0xE89341C EQ PUSH2 0x21E JUMPI DUP1 PUSH4 0x18160DDD EQ PUSH2 0x23E JUMPI JUMPDEST PUSH1 0x0 DUP1 REVERT JUMPDEST PUSH2 0x1C0 PUSH2 0x1BB CALLDATASIZE PUSH1 0x4 PUSH2 0x1923 JUMP JUMPDEST PUSH2 0x448 JUMP JUMPDEST PUSH1 0x40 MLOAD SWAP1 DUP2 MSTORE PUSH1 0x20 ADD JUMPDEST PUSH1 0x40 MLOAD DUP1 SWAP2 SUB SWAP1 RETURN JUMPDEST PUSH2 0x1E6 PUSH2 0x1E1 CALLDATASIZE PUSH1 0x4 PUSH2 0x1963 JUMP JUMPDEST PUSH2 0x47F JUMP JUMPDEST PUSH1 0x40 MLOAD SWAP1 ISZERO ISZERO DUP2 MSTORE PUSH1 0x20 ADD PUSH2 0x1CA JUMP JUMPDEST PUSH2 0x209 PUSH2 0x204 CALLDATASIZE PUSH1 0x4 PUSH2 0x1A3C JUMP JUMPDEST PUSH2 0x48A JUMP JUMPDEST STOP JUMPDEST PUSH2 0x209 PUSH2 0x219 CALLDATASIZE PUSH1 0x4 PUSH2 0x1A78 JUMP JUMPDEST PUSH2 0x4BC JUMP JUMPDEST PUSH2 0x231 PUSH2 0x22C CALLDATASIZE PUSH1 0x4 PUSH2 0x1ABE JUMP JUMPDEST PUSH2 0x56B JUMP JUMPDEST PUSH1 0x40 MLOAD PUSH2 0x1CA SWAP2 SWAP1 PUSH2 0x1B27 JUMP JUMPDEST PUSH32 0x4A593662EE04D27B6A00EBB31BE7FE0C102C2ADE82A7C5D764F2DF05DC4E2801 SLOAD PUSH2 0x1C0 JUMP JUMPDEST PUSH2 0x1C0 PUSH1 0x0 DUP1 MLOAD PUSH1 0x20 PUSH2 0x23F1 DUP4 CODECOPY DUP2 MLOAD SWAP2 MSTORE DUP2 JUMP JUMPDEST PUSH2 0x209 PUSH2 0x288 CALLDATASIZE PUSH1 0x4 PUSH2 0x1BCC JUMP JUMPDEST PUSH2 0x73E JUMP JUMPDEST PUSH2 0x209 PUSH2 0x29B CALLDATASIZE PUSH1 0x4 PUSH2 0x1C64 JUMP JUMPDEST PUSH2 0x7BC JUMP JUMPDEST PUSH2 0x1C0 PUSH2 0x2AE CALLDATASIZE PUSH1 0x4 PUSH2 0x1ABE JUMP JUMPDEST PUSH2 0x97B JUMP JUMPDEST PUSH2 0x209 PUSH2 0x2C1 CALLDATASIZE PUSH1 0x4 PUSH2 0x1CB9 JUMP JUMPDEST PUSH2 0x99D JUMP JUMPDEST PUSH2 0x209 PUSH2 0x2D4 CALLDATASIZE PUSH1 0x4 PUSH2 0x1D62 JUMP JUMPDEST PUSH2 0xA04 JUMP JUMPDEST PUSH2 0x209 PUSH2 0x2E7 CALLDATASIZE PUSH1 0x4 PUSH2 0x1D62 JUMP JUMPDEST PUSH2 0xA20 JUMP JUMPDEST PUSH2 0x2FF PUSH2 0x2FA CALLDATASIZE PUSH1 0x4 PUSH2 0x1D8E JUMP JUMPDEST PUSH2 0xA53 JUMP JUMPDEST PUSH1 0x40 MLOAD PUSH2 0x1CA SWAP2 SWAP1 PUSH2 0x1E7F JUMP JUMPDEST PUSH2 0x1E6 PUSH2 0x31A CALLDATASIZE PUSH1 0x4 PUSH2 0x1ABE JUMP JUMPDEST PUSH1 0x0 SWAP1 DUP2 MSTORE PUSH32 0x4A593662EE04D27B6A00EBB31BE7FE0C102C2ADE82A7C5D764F2DF05DC4E2800 PUSH1 0x20 MSTORE PUSH1 0x40 SWAP1 KECCAK256 SLOAD ISZERO ISZERO SWAP1 JUMP JUMPDEST PUSH2 0x209 PUSH2 0x35B CALLDATASIZE PUSH1 0x4 PUSH2 0x1E92 JUMP JUMPDEST PUSH2 0xB1F JUMP JUMPDEST PUSH2 0x209 PUSH2 0x36E CALLDATASIZE PUSH1 0x4 PUSH2 0x1F05 JUMP JUMPDEST PUSH2 0xBC4 JUMP JUMPDEST PUSH2 0x1E6 PUSH2 0x381 CALLDATASIZE PUSH1 0x4 PUSH2 0x1D62 JUMP JUMPDEST PUSH2 0xC0D JUMP JUMPDEST PUSH2 0x1C0 PUSH1 0x0 DUP2 JUMP JUMPDEST PUSH2 0x209 PUSH2 0x39C CALLDATASIZE PUSH1 0x4 PUSH2 0x1F59 JUMP JUMPDEST PUSH2 0xC45 JUMP JUMPDEST PUSH2 0x1C0 PUSH1 0x4 SLOAD DUP2 JUMP JUMPDEST PUSH2 0x1C0 PUSH2 0x3B8 CALLDATASIZE PUSH1 0x4 PUSH2 0x1ABE JUMP JUMPDEST PUSH1 0x0 SWAP1 DUP2 MSTORE PUSH32 0x4A593662EE04D27B6A00EBB31BE7FE0C102C2ADE82A7C5D764F2DF05DC4E2800 PUSH1 0x20 MSTORE PUSH1 0x40 SWAP1 KECCAK256 SLOAD SWAP1 JUMP JUMPDEST PUSH2 0x209 PUSH2 0x3F7 CALLDATASIZE PUSH1 0x4 PUSH2 0x1D62 JUMP JUMPDEST PUSH2 0xC54 JUMP JUMPDEST PUSH2 0x209 PUSH2 0x40A CALLDATASIZE PUSH1 0x4 PUSH2 0x1F95 JUMP JUMPDEST PUSH2 0xC70 JUMP JUMPDEST PUSH2 0x1E6 PUSH2 0x41D CALLDATASIZE PUSH1 0x4 PUSH2 0x1FD7 JUMP JUMPDEST PUSH2 0xCC7 JUMP JUMPDEST PUSH2 0x209 PUSH2 0x430 CALLDATASIZE PUSH1 0x4 PUSH2 0x2001 JUMP JUMPDEST PUSH2 0xD14 JUMP JUMPDEST PUSH2 0x209 PUSH2 0x443 CALLDATASIZE PUSH1 0x4 PUSH2 0x2065 JUMP JUMPDEST PUSH2 0xD73 JUMP JUMPDEST PUSH1 0x0 DUP2 DUP2 MSTORE PUSH1 0x0 DUP1 MLOAD PUSH1 0x20 PUSH2 0x2411 DUP4 CODECOPY DUP2 MLOAD SWAP2 MSTORE PUSH1 0x20 SWAP1 DUP2 MSTORE PUSH1 0x40 DUP1 DUP4 KECCAK256 PUSH1 0x1 PUSH1 0x1 PUSH1 0xA0 SHL SUB DUP7 AND DUP5 MSTORE SWAP1 SWAP2 MSTORE SWAP1 KECCAK256 SLOAD JUMPDEST SWAP3 SWAP2 POP POP JUMP JUMPDEST PUSH1 0x0 PUSH2 0x479 DUP3 PUSH2 0xDCE JUMP JUMPDEST PUSH1 0x0 DUP1 MLOAD PUSH1 0x20 PUSH2 0x23F1 DUP4 CODECOPY DUP2 MLOAD SWAP2 MSTORE PUSH2 0x4A2 DUP2 PUSH2 0xDF3 JUMP JUMPDEST PUSH2 0x4AB DUP3 PUSH2 0xE00 JUMP JUMPDEST PUSH1 0x3 PUSH2 0x4B7 DUP4 DUP3 PUSH2 0x211A JUMP JUMPDEST POP POP POP JUMP JUMPDEST PUSH1 0x0 DUP1 MLOAD PUSH1 0x20 PUSH2 0x23F1 DUP4 CODECOPY DUP2 MLOAD SWAP2 MSTORE PUSH2 0x4D4 DUP2 PUSH2 0xDF3 JUMP JUMPDEST PUSH2 0x4DD DUP4 PUSH2 0xE3A JUMP JUMPDEST PUSH2 0x54D JUMPI PUSH1 0x40 MLOAD PUSH3 0x461BCD PUSH1 0xE5 SHL DUP2 MSTORE PUSH1 0x20 PUSH1 0x4 DUP3 ADD MSTORE PUSH1 0x36 PUSH1 0x24 DUP3 ADD MSTORE PUSH32 0x455243313135354D657461646174613A20757064617465557269207175657279 PUSH1 0x44 DUP3 ADD MSTORE PUSH22 0x103337B9103737B732BC34B9BA32B73A103A37B5B2B7 PUSH1 0x51 SHL PUSH1 0x64 DUP3 ADD MSTORE PUSH1 0x84 ADD JUMPDEST PUSH1 0x40 MLOAD DUP1 SWAP2 SUB SWAP1 REVERT JUMPDEST PUSH1 0x0 DUP4 DUP2 MSTORE PUSH1 0x5 PUSH1 0x20 MSTORE PUSH1 0x40 SWAP1 KECCAK256 PUSH2 0x565 DUP4 DUP3 PUSH2 0x211A JUMP JUMPDEST POP POP POP POP JUMP JUMPDEST PUSH1 0x60 PUSH2 0x576 DUP3 PUSH2 0xE3A JUMP JUMPDEST PUSH2 0x5DB JUMPI PUSH1 0x40 MLOAD PUSH3 0x461BCD PUSH1 0xE5 SHL DUP2 MSTORE PUSH1 0x20 PUSH1 0x4 DUP3 ADD MSTORE PUSH1 0x30 PUSH1 0x24 DUP3 ADD MSTORE PUSH32 0x455243313135354D657461646174613A2055524920717565727920666F72206E PUSH1 0x44 DUP3 ADD MSTORE PUSH16 0x37B732BC34B9BA32B73A103A37B5B2B7 PUSH1 0x81 SHL PUSH1 0x64 DUP3 ADD MSTORE PUSH1 0x84 ADD PUSH2 0x544 JUMP JUMPDEST PUSH1 0x0 DUP3 DUP2 MSTORE PUSH1 0x5 PUSH1 0x20 MSTORE PUSH1 0x40 DUP2 KECCAK256 DUP1 SLOAD PUSH2 0x5F4 SWAP1 PUSH2 0x2098 JUMP JUMPDEST DUP1 PUSH1 0x1F ADD PUSH1 0x20 DUP1 SWAP2 DIV MUL PUSH1 0x20 ADD PUSH1 0x40 MLOAD SWAP1 DUP2 ADD PUSH1 0x40 MSTORE DUP1 SWAP3 SWAP2 SWAP1 DUP2 DUP2 MSTORE PUSH1 0x20 ADD DUP3 DUP1 SLOAD PUSH2 0x620 SWAP1 PUSH2 0x2098 JUMP JUMPDEST DUP1 ISZERO PUSH2 0x66D JUMPI DUP1 PUSH1 0x1F LT PUSH2 0x642 JUMPI PUSH2 0x100 DUP1 DUP4 SLOAD DIV MUL DUP4 MSTORE SWAP2 PUSH1 0x20 ADD SWAP2 PUSH2 0x66D JUMP JUMPDEST DUP3 ADD SWAP2 SWAP1 PUSH1 0x0 MSTORE PUSH1 0x20 PUSH1 0x0 KECCAK256 SWAP1 JUMPDEST DUP2 SLOAD DUP2 MSTORE SWAP1 PUSH1 0x1 ADD SWAP1 PUSH1 0x20 ADD DUP1 DUP4 GT PUSH2 0x650 JUMPI DUP3 SWAP1 SUB PUSH1 0x1F AND DUP3 ADD SWAP2 JUMPDEST POP POP POP POP POP SWAP1 POP PUSH1 0x0 PUSH1 0x3 DUP1 SLOAD PUSH2 0x683 SWAP1 PUSH2 0x2098 JUMP JUMPDEST DUP1 PUSH1 0x1F ADD PUSH1 0x20 DUP1 SWAP2 DIV MUL PUSH1 0x20 ADD PUSH1 0x40 MLOAD SWAP1 DUP2 ADD PUSH1 0x40 MSTORE DUP1 SWAP3 SWAP2 SWAP1 DUP2 DUP2 MSTORE PUSH1 0x20 ADD DUP3 DUP1 SLOAD PUSH2 0x6AF SWAP1 PUSH2 0x2098 JUMP JUMPDEST DUP1 ISZERO PUSH2 0x6FC JUMPI DUP1 PUSH1 0x1F LT PUSH2 0x6D1 JUMPI PUSH2 0x100 DUP1 DUP4 SLOAD DIV MUL DUP4 MSTORE SWAP2 PUSH1 0x20 ADD SWAP2 PUSH2 0x6FC JUMP JUMPDEST DUP3 ADD SWAP2 SWAP1 PUSH1 0x0 MSTORE PUSH1 0x20 PUSH1 0x0 KECCAK256 SWAP1 JUMPDEST DUP2 SLOAD DUP2 MSTORE SWAP1 PUSH1 0x1 ADD SWAP1 PUSH1 0x20 ADD DUP1 DUP4 GT PUSH2 0x6DF JUMPI DUP3 SWAP1 SUB PUSH1 0x1F AND DUP3 ADD SWAP2 JUMPDEST POP POP POP POP POP SWAP1 POP DUP1 MLOAD PUSH1 0x0 SUB PUSH2 0x713 JUMPI POP SWAP3 SWAP2 POP POP JUMP JUMPDEST DUP1 DUP3 PUSH1 0x40 MLOAD PUSH1 0x20 ADD PUSH2 0x726 SWAP3 SWAP2 SWAP1 PUSH2 0x21D9 JUMP JUMPDEST PUSH1 0x40 MLOAD PUSH1 0x20 DUP2 DUP4 SUB SUB DUP2 MSTORE SWAP1 PUSH1 0x40 MSTORE SWAP3 POP POP POP SWAP2 SWAP1 POP JUMP JUMPDEST PUSH1 0x0 DUP1 MLOAD PUSH1 0x20 PUSH2 0x23F1 DUP4 CODECOPY DUP2 MLOAD SWAP2 MSTORE PUSH2 0x756 DUP2 PUSH2 0xDF3 JUMP JUMPDEST PUSH1 0x0 JUMPDEST DUP5 MLOAD DUP2 LT ISZERO PUSH2 0x7A8 JUMPI PUSH2 0x784 DUP6 DUP3 DUP2 MLOAD DUP2 LT PUSH2 0x777 JUMPI PUSH2 0x777 PUSH2 0x2208 JUMP JUMPDEST PUSH1 0x20 MUL PUSH1 0x20 ADD ADD MLOAD PUSH2 0xE3A JUMP JUMPDEST PUSH2 0x7A0 JUMPI PUSH1 0x40 MLOAD PUSH3 0x461BCD PUSH1 0xE5 SHL DUP2 MSTORE PUSH1 0x4 ADD PUSH2 0x544 SWAP1 PUSH2 0x221E JUMP JUMPDEST PUSH1 0x1 ADD PUSH2 0x759 JUMP JUMPDEST POP PUSH2 0x7B5 DUP6 DUP6 DUP6 DUP6 PUSH2 0xE4F JUMP JUMPDEST POP POP POP POP POP JUMP JUMPDEST PUSH1 0x0 PUSH2 0x7C6 PUSH2 0xE87 JUMP JUMPDEST DUP1 SLOAD SWAP1 SWAP2 POP PUSH1 0xFF PUSH1 0x1 PUSH1 0x40 SHL DUP3 DIV AND ISZERO SWAP1 PUSH1 0x1 PUSH1 0x1 PUSH1 0x40 SHL SUB AND PUSH1 0x0 DUP2 ISZERO DUP1 ISZERO PUSH2 0x7ED JUMPI POP DUP3 JUMPDEST SWAP1 POP PUSH1 0x0 DUP3 PUSH1 0x1 PUSH1 0x1 PUSH1 0x40 SHL SUB AND PUSH1 0x1 EQ DUP1 ISZERO PUSH2 0x809 JUMPI POP ADDRESS EXTCODESIZE ISZERO JUMPDEST SWAP1 POP DUP2 ISZERO DUP1 ISZERO PUSH2 0x817 JUMPI POP DUP1 ISZERO JUMPDEST ISZERO PUSH2 0x835 JUMPI PUSH1 0x40 MLOAD PUSH4 0xF92EE8A9 PUSH1 0xE0 SHL DUP2 MSTORE PUSH1 0x4 ADD PUSH1 0x40 MLOAD DUP1 SWAP2 SUB SWAP1 REVERT JUMPDEST DUP5 SLOAD PUSH8 0xFFFFFFFFFFFFFFFF NOT AND PUSH1 0x1 OR DUP6 SSTORE DUP4 ISZERO PUSH2 0x85F JUMPI DUP5 SLOAD PUSH1 0xFF PUSH1 0x40 SHL NOT AND PUSH1 0x1 PUSH1 0x40 SHL OR DUP6 SSTORE JUMPDEST PUSH2 0x894 PUSH1 0x40 MLOAD DUP1 PUSH1 0x40 ADD PUSH1 0x40 MSTORE DUP1 PUSH1 0x14 DUP2 MSTORE PUSH1 0x20 ADD PUSH20 0x68747470733A2F2F68656C6C6F2F776F726C642F PUSH1 0x60 SHL DUP2 MSTORE POP PUSH2 0xEB0 JUMP JUMPDEST PUSH2 0x89C PUSH2 0xEC1 JUMP JUMPDEST PUSH2 0x8A4 PUSH2 0xEC1 JUMP JUMPDEST PUSH2 0x8AC PUSH2 0xEC1 JUMP JUMPDEST PUSH1 0x0 PUSH2 0x8B8 DUP9 DUP3 PUSH2 0x211A JUMP JUMPDEST POP PUSH1 0x1 PUSH2 0x8C5 DUP8 DUP3 PUSH2 0x211A JUMP JUMPDEST POP PUSH1 0x40 DUP1 MLOAD DUP1 DUP3 ADD SWAP1 SWAP2 MSTORE PUSH1 0x14 DUP2 MSTORE PUSH20 0x68747470733A2F2F68656C6C6F2F776F726C642F PUSH1 0x60 SHL PUSH1 0x20 DUP3 ADD MSTORE PUSH1 0x3 SWAP1 PUSH2 0x8FE SWAP1 DUP3 PUSH2 0x211A JUMP JUMPDEST POP PUSH1 0x0 PUSH1 0x2 DUP2 SWAP1 SSTORE PUSH2 0x910 SWAP1 DUP11 PUSH2 0xECB JUMP JUMPDEST POP PUSH2 0x929 PUSH1 0x0 DUP1 MLOAD PUSH1 0x20 PUSH2 0x23F1 DUP4 CODECOPY DUP2 MLOAD SWAP2 MSTORE DUP10 PUSH2 0xECB JUMP JUMPDEST POP DUP4 ISZERO PUSH2 0x970 JUMPI DUP5 SLOAD PUSH1 0xFF PUSH1 0x40 SHL NOT AND DUP6 SSTORE PUSH1 0x40 MLOAD PUSH1 0x1 DUP2 MSTORE PUSH32 0xC7F505B2F371AE2175EE4913F4499E1F2633A7B5936321EED1CDAEB6115181D2 SWAP1 PUSH1 0x20 ADD PUSH1 0x40 MLOAD DUP1 SWAP2 SUB SWAP1 LOG1 JUMPDEST POP POP POP POP POP POP POP POP POP JUMP JUMPDEST PUSH1 0x0 SWAP1 DUP2 MSTORE PUSH1 0x0 DUP1 MLOAD PUSH1 0x20 PUSH2 0x2431 DUP4 CODECOPY DUP2 MLOAD SWAP2 MSTORE PUSH1 0x20 MSTORE PUSH1 0x40 SWAP1 KECCAK256 PUSH1 0x1 ADD SLOAD SWAP1 JUMP JUMPDEST CALLER PUSH1 0x1 PUSH1 0x1 PUSH1 0xA0 SHL SUB DUP7 AND DUP2 EQ DUP1 ISZERO SWAP1 PUSH2 0x9BE JUMPI POP PUSH2 0x9BC DUP7 DUP3 PUSH2 0xCC7 JUMP JUMPDEST ISZERO JUMPDEST ISZERO PUSH2 0x9EF JUMPI PUSH1 0x40 MLOAD PUSH4 0x711BEC91 PUSH1 0xE1 SHL DUP2 MSTORE PUSH1 0x1 PUSH1 0x1 PUSH1 0xA0 SHL SUB DUP1 DUP4 AND PUSH1 0x4 DUP4 ADD MSTORE DUP8 AND PUSH1 0x24 DUP3 ADD MSTORE PUSH1 0x44 ADD PUSH2 0x544 JUMP JUMPDEST PUSH2 0x9FC DUP7 DUP7 DUP7 DUP7 DUP7 PUSH2 0xF70 JUMP JUMPDEST POP POP POP POP POP POP JUMP JUMPDEST PUSH2 0xA0D DUP3 PUSH2 0x97B JUMP JUMPDEST PUSH2 0xA16 DUP2 PUSH2 0xDF3 JUMP JUMPDEST PUSH2 0x565 DUP4 DUP4 PUSH2 0xECB JUMP JUMPDEST PUSH1 0x1 PUSH1 0x1 PUSH1 0xA0 SHL SUB DUP2 AND CALLER EQ PUSH2 0xA49 JUMPI PUSH1 0x40 MLOAD PUSH4 0x334BD919 PUSH1 0xE1 SHL DUP2 MSTORE PUSH1 0x4 ADD PUSH1 0x40 MLOAD DUP1 SWAP2 SUB SWAP1 REVERT JUMPDEST PUSH2 0x4B7 DUP3 DUP3 PUSH2 0xFD0 JUMP JUMPDEST PUSH1 0x60 DUP2 MLOAD DUP4 MLOAD EQ PUSH2 0xA84 JUMPI DUP2 MLOAD DUP4 MLOAD PUSH1 0x40 MLOAD PUSH4 0x5B059991 PUSH1 0xE0 SHL DUP2 MSTORE PUSH1 0x4 DUP2 ADD SWAP3 SWAP1 SWAP3 MSTORE PUSH1 0x24 DUP3 ADD MSTORE PUSH1 0x44 ADD PUSH2 0x544 JUMP JUMPDEST PUSH1 0x0 DUP4 MLOAD PUSH1 0x1 PUSH1 0x1 PUSH1 0x40 SHL SUB DUP2 GT ISZERO PUSH2 0xA9F JUMPI PUSH2 0xA9F PUSH2 0x1987 JUMP JUMPDEST PUSH1 0x40 MLOAD SWAP1 DUP1 DUP3 MSTORE DUP1 PUSH1 0x20 MUL PUSH1 0x20 ADD DUP3 ADD PUSH1 0x40 MSTORE DUP1 ISZERO PUSH2 0xAC8 JUMPI DUP2 PUSH1 0x20 ADD PUSH1 0x20 DUP3 MUL DUP1 CALLDATASIZE DUP4 CALLDATACOPY ADD SWAP1 POP JUMPDEST POP SWAP1 POP PUSH1 0x0 JUMPDEST DUP5 MLOAD DUP2 LT ISZERO PUSH2 0xB17 JUMPI PUSH1 0x20 DUP1 DUP3 MUL DUP7 ADD ADD MLOAD PUSH2 0xAF2 SWAP1 PUSH1 0x20 DUP1 DUP5 MUL DUP8 ADD ADD MLOAD PUSH2 0x448 JUMP JUMPDEST DUP3 DUP3 DUP2 MLOAD DUP2 LT PUSH2 0xB04 JUMPI PUSH2 0xB04 PUSH2 0x2208 JUMP JUMPDEST PUSH1 0x20 SWAP1 DUP2 MUL SWAP2 SWAP1 SWAP2 ADD ADD MSTORE PUSH1 0x1 ADD PUSH2 0xACE JUMP JUMPDEST POP SWAP4 SWAP3 POP POP POP JUMP JUMPDEST PUSH1 0x0 JUMPDEST DUP3 MLOAD DUP2 LT ISZERO PUSH2 0xB64 JUMPI PUSH2 0xB40 DUP4 DUP3 DUP2 MLOAD DUP2 LT PUSH2 0x777 JUMPI PUSH2 0x777 PUSH2 0x2208 JUMP JUMPDEST PUSH2 0xB5C JUMPI PUSH1 0x40 MLOAD PUSH3 0x461BCD PUSH1 0xE5 SHL DUP2 MSTORE PUSH1 0x4 ADD PUSH2 0x544 SWAP1 PUSH2 0x226F JUMP JUMPDEST PUSH1 0x1 ADD PUSH2 0xB22 JUMP JUMPDEST POP PUSH1 0x1 PUSH1 0x1 PUSH1 0xA0 SHL SUB DUP4 AND CALLER EQ DUP1 ISZERO SWAP1 PUSH2 0xB85 JUMPI POP PUSH2 0xB83 DUP4 CALLER PUSH2 0xCC7 JUMP JUMPDEST ISZERO JUMPDEST ISZERO PUSH2 0xBB9 JUMPI CALLER JUMPDEST PUSH1 0x40 MLOAD PUSH4 0x711BEC91 PUSH1 0xE1 SHL DUP2 MSTORE PUSH1 0x1 PUSH1 0x1 PUSH1 0xA0 SHL SUB SWAP2 DUP3 AND PUSH1 0x4 DUP3 ADD MSTORE SWAP1 DUP5 AND PUSH1 0x24 DUP3 ADD MSTORE PUSH1 0x44 ADD PUSH2 0x544 JUMP JUMPDEST PUSH2 0x4B7 DUP4 DUP4 DUP4 PUSH2 0x104C JUMP JUMPDEST PUSH1 0x0 DUP1 MLOAD PUSH1 0x20 PUSH2 0x23F1 DUP4 CODECOPY DUP2 MLOAD SWAP2 MSTORE PUSH2 0xBDC DUP2 PUSH2 0xDF3 JUMP JUMPDEST PUSH2 0xBE5 DUP5 PUSH2 0xE3A JUMP JUMPDEST PUSH2 0xC01 JUMPI PUSH1 0x40 MLOAD PUSH3 0x461BCD PUSH1 0xE5 SHL DUP2 MSTORE PUSH1 0x4 ADD PUSH2 0x544 SWAP1 PUSH2 0x221E JUMP JUMPDEST PUSH2 0x7B5 DUP6 DUP6 DUP6 DUP6 PUSH2 0x1092 JUMP JUMPDEST PUSH1 0x0 SWAP2 DUP3 MSTORE PUSH1 0x0 DUP1 MLOAD PUSH1 0x20 PUSH2 0x2431 DUP4 CODECOPY DUP2 MLOAD SWAP2 MSTORE PUSH1 0x20 SWAP1 DUP2 MSTORE PUSH1 0x40 DUP1 DUP5 KECCAK256 PUSH1 0x1 PUSH1 0x1 PUSH1 0xA0 SHL SUB SWAP4 SWAP1 SWAP4 AND DUP5 MSTORE SWAP2 SWAP1 MSTORE SWAP1 KECCAK256 SLOAD PUSH1 0xFF AND SWAP1 JUMP JUMPDEST PUSH2 0xC50 CALLER DUP4 DUP4 PUSH2 0x10EF JUMP JUMPDEST POP POP JUMP JUMPDEST PUSH2 0xC5D DUP3 PUSH2 0x97B JUMP JUMPDEST PUSH2 0xC66 DUP2 PUSH2 0xDF3 JUMP JUMPDEST PUSH2 0x565 DUP4 DUP4 PUSH2 0xFD0 JUMP JUMPDEST PUSH1 0x0 DUP1 MLOAD PUSH1 0x20 PUSH2 0x23F1 DUP4 CODECOPY DUP2 MLOAD SWAP2 MSTORE PUSH2 0xC88 DUP2 PUSH2 0xDF3 JUMP JUMPDEST PUSH1 0x2 DUP1 SLOAD SWAP1 PUSH1 0x0 PUSH2 0xC98 DUP4 PUSH2 0x22D6 JUMP JUMPDEST SWAP1 SWAP2 SSTORE POP POP PUSH1 0x2 SLOAD PUSH1 0x0 SWAP1 DUP2 MSTORE PUSH1 0x5 PUSH1 0x20 MSTORE PUSH1 0x40 SWAP1 KECCAK256 PUSH2 0xCB8 DUP5 DUP3 PUSH2 0x211A JUMP JUMPDEST POP PUSH2 0x7B5 DUP6 PUSH1 0x2 SLOAD DUP7 DUP6 PUSH2 0x1092 JUMP JUMPDEST PUSH1 0x1 PUSH1 0x1 PUSH1 0xA0 SHL SUB SWAP2 DUP3 AND PUSH1 0x0 SWAP1 DUP2 MSTORE PUSH32 0x88BE536D5240C274A3B1D3A1BE54482FD9CAA294F08C62A7CDE569F49A3C4501 PUSH1 0x20 SWAP1 DUP2 MSTORE PUSH1 0x40 DUP1 DUP4 KECCAK256 SWAP4 SWAP1 SWAP5 AND DUP3 MSTORE SWAP2 SWAP1 SWAP2 MSTORE KECCAK256 SLOAD PUSH1 0xFF AND SWAP1 JUMP JUMPDEST CALLER PUSH1 0x1 PUSH1 0x1 PUSH1 0xA0 SHL SUB DUP7 AND DUP2 EQ DUP1 ISZERO SWAP1 PUSH2 0xD35 JUMPI POP PUSH2 0xD33 DUP7 DUP3 PUSH2 0xCC7 JUMP JUMPDEST ISZERO JUMPDEST ISZERO PUSH2 0xD66 JUMPI PUSH1 0x40 MLOAD PUSH4 0x711BEC91 PUSH1 0xE1 SHL DUP2 MSTORE PUSH1 0x1 PUSH1 0x1 PUSH1 0xA0 SHL SUB DUP1 DUP4 AND PUSH1 0x4 DUP4 ADD MSTORE DUP8 AND PUSH1 0x24 DUP3 ADD MSTORE PUSH1 0x44 ADD PUSH2 0x544 JUMP JUMPDEST PUSH2 0x9FC DUP7 DUP7 DUP7 DUP7 DUP7 PUSH2 0x1197 JUMP JUMPDEST PUSH2 0xD7C DUP3 PUSH2 0xE3A JUMP JUMPDEST PUSH2 0xD98 JUMPI PUSH1 0x40 MLOAD PUSH3 0x461BCD PUSH1 0xE5 SHL DUP2 MSTORE PUSH1 0x4 ADD PUSH2 0x544 SWAP1 PUSH2 0x226F JUMP JUMPDEST PUSH1 0x1 PUSH1 0x1 PUSH1 0xA0 SHL SUB DUP4 AND CALLER EQ DUP1 ISZERO SWAP1 PUSH2 0xDB8 JUMPI POP PUSH2 0xDB6 DUP4 CALLER PUSH2 0xCC7 JUMP JUMPDEST ISZERO JUMPDEST ISZERO PUSH2 0xDC3 JUMPI CALLER PUSH2 0xB8C JUMP JUMPDEST PUSH2 0x4B7 DUP4 DUP4 DUP4 PUSH2 0x1225 JUMP JUMPDEST PUSH1 0x0 PUSH1 0x1 PUSH1 0x1 PUSH1 0xE0 SHL SUB NOT DUP3 AND PUSH4 0x7965DB0B PUSH1 0xE0 SHL EQ DUP1 PUSH2 0x479 JUMPI POP PUSH2 0x479 DUP3 PUSH2 0x128D JUMP JUMPDEST PUSH2 0xDFD DUP2 CALLER PUSH2 0x12DD JUMP JUMPDEST POP JUMP JUMPDEST PUSH1 0x0 DUP1 MLOAD PUSH1 0x20 PUSH2 0x2411 DUP4 CODECOPY DUP2 MLOAD SWAP2 MSTORE PUSH32 0x88BE536D5240C274A3B1D3A1BE54482FD9CAA294F08C62A7CDE569F49A3C4502 PUSH2 0x4B7 DUP4 DUP3 PUSH2 0x211A JUMP JUMPDEST PUSH1 0x0 DUP1 DUP3 GT DUP1 ISZERO PUSH2 0x479 JUMPI POP POP PUSH1 0x2 SLOAD LT ISZERO SWAP1 JUMP JUMPDEST PUSH1 0x1 PUSH1 0x1 PUSH1 0xA0 SHL SUB DUP5 AND PUSH2 0xE79 JUMPI PUSH1 0x40 MLOAD PUSH4 0x2BFA23E7 PUSH1 0xE1 SHL DUP2 MSTORE PUSH1 0x0 PUSH1 0x4 DUP3 ADD MSTORE PUSH1 0x24 ADD PUSH2 0x544 JUMP JUMPDEST PUSH2 0x565 PUSH1 0x0 DUP6 DUP6 DUP6 DUP6 PUSH2 0x1316 JUMP JUMPDEST PUSH1 0x0 DUP1 PUSH32 0xF0C57E16840DF040F15088DC2F81FE391C3923BEC73E23A9662EFC9C229C6A00 PUSH2 0x479 JUMP JUMPDEST PUSH2 0xEB8 PUSH2 0x1369 JUMP JUMPDEST PUSH2 0xDFD DUP2 PUSH2 0x138E JUMP JUMPDEST PUSH2 0xEC9 PUSH2 0x1369 JUMP JUMPDEST JUMP JUMPDEST PUSH1 0x0 PUSH1 0x0 DUP1 MLOAD PUSH1 0x20 PUSH2 0x2431 DUP4 CODECOPY DUP2 MLOAD SWAP2 MSTORE PUSH2 0xEE6 DUP5 DUP5 PUSH2 0xC0D JUMP JUMPDEST PUSH2 0xF66 JUMPI PUSH1 0x0 DUP5 DUP2 MSTORE PUSH1 0x20 DUP3 DUP2 MSTORE PUSH1 0x40 DUP1 DUP4 KECCAK256 PUSH1 0x1 PUSH1 0x1 PUSH1 0xA0 SHL SUB DUP8 AND DUP5 MSTORE SWAP1 SWAP2 MSTORE SWAP1 KECCAK256 DUP1 SLOAD PUSH1 0xFF NOT AND PUSH1 0x1 OR SWAP1 SSTORE PUSH2 0xF1C CALLER SWAP1 JUMP JUMPDEST PUSH1 0x1 PUSH1 0x1 PUSH1 0xA0 SHL SUB AND DUP4 PUSH1 0x1 PUSH1 0x1 PUSH1 0xA0 SHL SUB AND DUP6 PUSH32 0x2F8788117E7EFF1D82E926EC794901D17C78024A50270940304540A733656F0D PUSH1 0x40 MLOAD PUSH1 0x40 MLOAD DUP1 SWAP2 SUB SWAP1 LOG4 PUSH1 0x1 SWAP2 POP POP PUSH2 0x479 JUMP JUMPDEST PUSH1 0x0 SWAP2 POP POP PUSH2 0x479 JUMP JUMPDEST PUSH1 0x1 PUSH1 0x1 PUSH1 0xA0 SHL SUB DUP5 AND PUSH2 0xF9A JUMPI PUSH1 0x40 MLOAD PUSH4 0x2BFA23E7 PUSH1 0xE1 SHL DUP2 MSTORE PUSH1 0x0 PUSH1 0x4 DUP3 ADD MSTORE PUSH1 0x24 ADD PUSH2 0x544 JUMP JUMPDEST PUSH1 0x1 PUSH1 0x1 PUSH1 0xA0 SHL SUB DUP6 AND PUSH2 0xFC3 JUMPI PUSH1 0x40 MLOAD PUSH3 0x6A0D45 PUSH1 0xE2 SHL DUP2 MSTORE PUSH1 0x0 PUSH1 0x4 DUP3 ADD MSTORE PUSH1 0x24 ADD PUSH2 0x544 JUMP JUMPDEST PUSH2 0x7B5 DUP6 DUP6 DUP6 DUP6 DUP6 PUSH2 0x1316 JUMP JUMPDEST PUSH1 0x0 PUSH1 0x0 DUP1 MLOAD PUSH1 0x20 PUSH2 0x2431 DUP4 CODECOPY DUP2 MLOAD SWAP2 MSTORE PUSH2 0xFEB DUP5 DUP5 PUSH2 0xC0D JUMP JUMPDEST ISZERO PUSH2 0xF66 JUMPI PUSH1 0x0 DUP5 DUP2 MSTORE PUSH1 0x20 DUP3 DUP2 MSTORE PUSH1 0x40 DUP1 DUP4 KECCAK256 PUSH1 0x1 PUSH1 0x1 PUSH1 0xA0 SHL SUB DUP8 AND DUP1 DUP6 MSTORE SWAP3 MSTORE DUP1 DUP4 KECCAK256 DUP1 SLOAD PUSH1 0xFF NOT AND SWAP1 SSTORE MLOAD CALLER SWAP3 DUP8 SWAP2 PUSH32 0xF6391F5C32D9C69D2A47EA670B442974B53935D1EDC7FD64EB21E047A839171B SWAP2 SWAP1 LOG4 PUSH1 0x1 SWAP2 POP POP PUSH2 0x479 JUMP JUMPDEST PUSH1 0x1 PUSH1 0x1 PUSH1 0xA0 SHL SUB DUP4 AND PUSH2 0x1075 JUMPI PUSH1 0x40 MLOAD PUSH3 0x6A0D45 PUSH1 0xE2 SHL DUP2 MSTORE PUSH1 0x0 PUSH1 0x4 DUP3 ADD MSTORE PUSH1 0x24 ADD PUSH2 0x544 JUMP JUMPDEST PUSH2 0x4B7 DUP4 PUSH1 0x0 DUP5 DUP5 PUSH1 0x40 MLOAD DUP1 PUSH1 0x20 ADD PUSH1 0x40 MSTORE DUP1 PUSH1 0x0 DUP2 MSTORE POP PUSH2 0x1316 JUMP JUMPDEST PUSH1 0x1 PUSH1 0x1 PUSH1 0xA0 SHL SUB DUP5 AND PUSH2 0x10BC JUMPI PUSH1 0x40 MLOAD PUSH4 0x2BFA23E7 PUSH1 0xE1 SHL DUP2 MSTORE PUSH1 0x0 PUSH1 0x4 DUP3 ADD MSTORE PUSH1 0x24 ADD PUSH2 0x544 JUMP JUMPDEST PUSH1 0x40 DUP1 MLOAD PUSH1 0x1 DUP1 DUP3 MSTORE PUSH1 0x20 DUP3 ADD DUP7 SWAP1 MSTORE DUP2 DUP4 ADD SWAP1 DUP2 MSTORE PUSH1 0x60 DUP3 ADD DUP6 SWAP1 MSTORE PUSH1 0x80 DUP3 ADD SWAP1 SWAP3 MSTORE SWAP1 PUSH2 0x9FC PUSH1 0x0 DUP8 DUP5 DUP5 DUP8 PUSH2 0x1316 JUMP JUMPDEST PUSH1 0x0 DUP1 MLOAD PUSH1 0x20 PUSH2 0x2411 DUP4 CODECOPY DUP2 MLOAD SWAP2 MSTORE PUSH1 0x1 PUSH1 0x1 PUSH1 0xA0 SHL SUB DUP4 AND PUSH2 0x1127 JUMPI PUSH1 0x40 MLOAD PUSH3 0xCED3E1 PUSH1 0xE8 SHL DUP2 MSTORE PUSH1 0x0 PUSH1 0x4 DUP3 ADD MSTORE PUSH1 0x24 ADD PUSH2 0x544 JUMP JUMPDEST PUSH1 0x1 PUSH1 0x1 PUSH1 0xA0 SHL SUB DUP5 DUP2 AND PUSH1 0x0 DUP2 DUP2 MSTORE PUSH1 0x1 DUP5 ADD PUSH1 0x20 SWAP1 DUP2 MSTORE PUSH1 0x40 DUP1 DUP4 KECCAK256 SWAP5 DUP9 AND DUP1 DUP5 MSTORE SWAP5 DUP3 MSTORE SWAP2 DUP3 SWAP1 KECCAK256 DUP1 SLOAD PUSH1 0xFF NOT AND DUP8 ISZERO ISZERO SWAP1 DUP2 OR SWAP1 SWAP2 SSTORE SWAP2 MLOAD SWAP2 DUP3 MSTORE PUSH32 0x17307EAB39AB6107E8899845AD3D59BD9653F200F220920489CA2B5937696C31 SWAP2 ADD PUSH1 0x40 MLOAD DUP1 SWAP2 SUB SWAP1 LOG3 POP POP POP POP JUMP JUMPDEST PUSH1 0x1 PUSH1 0x1 PUSH1 0xA0 SHL SUB DUP5 AND PUSH2 0x11C1 JUMPI PUSH1 0x40 MLOAD PUSH4 0x2BFA23E7 PUSH1 0xE1 SHL DUP2 MSTORE PUSH1 0x0 PUSH1 0x4 DUP3 ADD MSTORE PUSH1 0x24 ADD PUSH2 0x544 JUMP JUMPDEST PUSH1 0x1 PUSH1 0x1 PUSH1 0xA0 SHL SUB DUP6 AND PUSH2 0x11EA JUMPI PUSH1 0x40 MLOAD PUSH3 0x6A0D45 PUSH1 0xE2 SHL DUP2 MSTORE PUSH1 0x0 PUSH1 0x4 DUP3 ADD MSTORE PUSH1 0x24 ADD PUSH2 0x544 JUMP JUMPDEST PUSH1 0x40 DUP1 MLOAD PUSH1 0x1 DUP1 DUP3 MSTORE PUSH1 0x20 DUP3 ADD DUP7 SWAP1 MSTORE DUP2 DUP4 ADD SWAP1 DUP2 MSTORE PUSH1 0x60 DUP3 ADD DUP6 SWAP1 MSTORE PUSH1 0x80 DUP3 ADD SWAP1 SWAP3 MSTORE SWAP1 PUSH2 0x121C DUP8 DUP8 DUP5 DUP5 DUP8 PUSH2 0x1316 JUMP JUMPDEST POP POP POP POP POP POP POP JUMP JUMPDEST PUSH1 0x1 PUSH1 0x1 PUSH1 0xA0 SHL SUB DUP4 AND PUSH2 0x124E JUMPI PUSH1 0x40 MLOAD PUSH3 0x6A0D45 PUSH1 0xE2 SHL DUP2 MSTORE PUSH1 0x0 PUSH1 0x4 DUP3 ADD MSTORE PUSH1 0x24 ADD PUSH2 0x544 JUMP JUMPDEST PUSH1 0x40 DUP1 MLOAD PUSH1 0x1 DUP1 DUP3 MSTORE PUSH1 0x20 DUP3 ADD DUP6 SWAP1 MSTORE DUP2 DUP4 ADD SWAP1 DUP2 MSTORE PUSH1 0x60 DUP3 ADD DUP5 SWAP1 MSTORE PUSH1 0xA0 DUP3 ADD SWAP1 SWAP3 MSTORE PUSH1 0x0 PUSH1 0x80 DUP3 ADD DUP2 DUP2 MSTORE SWAP2 SWAP3 SWAP2 PUSH2 0x7B5 SWAP2 DUP8 SWAP2 DUP6 SWAP1 DUP6 SWAP1 PUSH2 0x1316 JUMP JUMPDEST PUSH1 0x0 PUSH1 0x1 PUSH1 0x1 PUSH1 0xE0 SHL SUB NOT DUP3 AND PUSH4 0x6CDB3D13 PUSH1 0xE1 SHL EQ DUP1 PUSH2 0x12BE JUMPI POP PUSH1 0x1 PUSH1 0x1 PUSH1 0xE0 SHL SUB NOT DUP3 AND PUSH4 0x3A24D07 PUSH1 0xE2 SHL EQ JUMPDEST DUP1 PUSH2 0x479 JUMPI POP PUSH4 0x1FFC9A7 PUSH1 0xE0 SHL PUSH1 0x1 PUSH1 0x1 PUSH1 0xE0 SHL SUB NOT DUP4 AND EQ PUSH2 0x479 JUMP JUMPDEST PUSH2 0x12E7 DUP3 DUP3 PUSH2 0xC0D JUMP JUMPDEST PUSH2 0xC50 JUMPI PUSH1 0x40 MLOAD PUSH4 0xE2517D3F PUSH1 0xE0 SHL DUP2 MSTORE PUSH1 0x1 PUSH1 0x1 PUSH1 0xA0 SHL SUB DUP3 AND PUSH1 0x4 DUP3 ADD MSTORE PUSH1 0x24 DUP2 ADD DUP4 SWAP1 MSTORE PUSH1 0x44 ADD PUSH2 0x544 JUMP JUMPDEST PUSH2 0x1322 DUP6 DUP6 DUP6 DUP6 PUSH2 0x139F JUMP JUMPDEST PUSH1 0x1 PUSH1 0x1 PUSH1 0xA0 SHL SUB DUP5 AND ISZERO PUSH2 0x7B5 JUMPI DUP3 MLOAD CALLER SWAP1 PUSH1 0x1 SUB PUSH2 0x135B JUMPI PUSH1 0x20 DUP5 DUP2 ADD MLOAD SWAP1 DUP5 ADD MLOAD PUSH2 0x1354 DUP4 DUP10 DUP10 DUP6 DUP6 DUP10 PUSH2 0x13AB JUMP JUMPDEST POP POP PUSH2 0x9FC JUMP JUMPDEST PUSH2 0x9FC DUP2 DUP8 DUP8 DUP8 DUP8 DUP8 PUSH2 0x14CF JUMP JUMPDEST PUSH2 0x1371 PUSH2 0x15B8 JUMP JUMPDEST PUSH2 0xEC9 JUMPI PUSH1 0x40 MLOAD PUSH4 0x1AFCD79F PUSH1 0xE3 SHL DUP2 MSTORE PUSH1 0x4 ADD PUSH1 0x40 MLOAD DUP1 SWAP2 SUB SWAP1 REVERT JUMPDEST PUSH2 0x1396 PUSH2 0x1369 JUMP JUMPDEST PUSH2 0xDFD DUP2 PUSH2 0xE00 JUMP JUMPDEST PUSH2 0x565 DUP5 DUP5 DUP5 DUP5 PUSH2 0x15D2 JUMP JUMPDEST PUSH1 0x1 PUSH1 0x1 PUSH1 0xA0 SHL SUB DUP5 AND EXTCODESIZE ISZERO PUSH2 0x9FC JUMPI PUSH1 0x40 MLOAD PUSH4 0xF23A6E61 PUSH1 0xE0 SHL DUP2 MSTORE PUSH1 0x1 PUSH1 0x1 PUSH1 0xA0 SHL SUB DUP6 AND SWAP1 PUSH4 0xF23A6E61 SWAP1 PUSH2 0x13EF SWAP1 DUP10 SWAP1 DUP10 SWAP1 DUP9 SWAP1 DUP9 SWAP1 DUP9 SWAP1 PUSH1 0x4 ADD PUSH2 0x22EF JUMP JUMPDEST PUSH1 0x20 PUSH1 0x40 MLOAD DUP1 DUP4 SUB DUP2 PUSH1 0x0 DUP8 GAS CALL SWAP3 POP POP POP DUP1 ISZERO PUSH2 0x142A JUMPI POP PUSH1 0x40 DUP1 MLOAD PUSH1 0x1F RETURNDATASIZE SWAP1 DUP2 ADD PUSH1 0x1F NOT AND DUP3 ADD SWAP1 SWAP3 MSTORE PUSH2 0x1427 SWAP2 DUP2 ADD SWAP1 PUSH2 0x2334 JUMP JUMPDEST PUSH1 0x1 JUMPDEST PUSH2 0x1493 JUMPI RETURNDATASIZE DUP1 DUP1 ISZERO PUSH2 0x1458 JUMPI PUSH1 0x40 MLOAD SWAP2 POP PUSH1 0x1F NOT PUSH1 0x3F RETURNDATASIZE ADD AND DUP3 ADD PUSH1 0x40 MSTORE RETURNDATASIZE DUP3 MSTORE RETURNDATASIZE PUSH1 0x0 PUSH1 0x20 DUP5 ADD RETURNDATACOPY PUSH2 0x145D JUMP JUMPDEST PUSH1 0x60 SWAP2 POP JUMPDEST POP DUP1 MLOAD PUSH1 0x0 SUB PUSH2 0x148B JUMPI PUSH1 0x40 MLOAD PUSH4 0x2BFA23E7 PUSH1 0xE1 SHL DUP2 MSTORE PUSH1 0x1 PUSH1 0x1 PUSH1 0xA0 SHL SUB DUP7 AND PUSH1 0x4 DUP3 ADD MSTORE PUSH1 0x24 ADD PUSH2 0x544 JUMP JUMPDEST DUP1 MLOAD DUP2 PUSH1 0x20 ADD REVERT JUMPDEST PUSH1 0x1 PUSH1 0x1 PUSH1 0xE0 SHL SUB NOT DUP2 AND PUSH4 0xF23A6E61 PUSH1 0xE0 SHL EQ PUSH2 0x121C JUMPI PUSH1 0x40 MLOAD PUSH4 0x2BFA23E7 PUSH1 0xE1 SHL DUP2 MSTORE PUSH1 0x1 PUSH1 0x1 PUSH1 0xA0 SHL SUB DUP7 AND PUSH1 0x4 DUP3 ADD MSTORE PUSH1 0x24 ADD PUSH2 0x544 JUMP JUMPDEST PUSH1 0x1 PUSH1 0x1 PUSH1 0xA0 SHL SUB DUP5 AND EXTCODESIZE ISZERO PUSH2 0x9FC JUMPI PUSH1 0x40 MLOAD PUSH4 0xBC197C81 PUSH1 0xE0 SHL DUP2 MSTORE PUSH1 0x1 PUSH1 0x1 PUSH1 0xA0 SHL SUB DUP6 AND SWAP1 PUSH4 0xBC197C81 SWAP1 PUSH2 0x1513 SWAP1 DUP10 SWAP1 DUP10 SWAP1 DUP9 SWAP1 DUP9 SWAP1 DUP9 SWAP1 PUSH1 0x4 ADD PUSH2 0x2351 JUMP JUMPDEST PUSH1 0x20 PUSH1 0x40 MLOAD DUP1 DUP4 SUB DUP2 PUSH1 0x0 DUP8 GAS CALL SWAP3 POP POP POP DUP1 ISZERO PUSH2 0x154E JUMPI POP PUSH1 0x40 DUP1 MLOAD PUSH1 0x1F RETURNDATASIZE SWAP1 DUP2 ADD PUSH1 0x1F NOT AND DUP3 ADD SWAP1 SWAP3 MSTORE PUSH2 0x154B SWAP2 DUP2 ADD SWAP1 PUSH2 0x2334 JUMP JUMPDEST PUSH1 0x1 JUMPDEST PUSH2 0x157C JUMPI RETURNDATASIZE DUP1 DUP1 ISZERO PUSH2 0x1458 JUMPI PUSH1 0x40 MLOAD SWAP2 POP PUSH1 0x1F NOT PUSH1 0x3F RETURNDATASIZE ADD AND DUP3 ADD PUSH1 0x40 MSTORE RETURNDATASIZE DUP3 MSTORE RETURNDATASIZE PUSH1 0x0 PUSH1 0x20 DUP5 ADD RETURNDATACOPY PUSH2 0x145D JUMP JUMPDEST PUSH1 0x1 PUSH1 0x1 PUSH1 0xE0 SHL SUB NOT DUP2 AND PUSH4 0xBC197C81 PUSH1 0xE0 SHL EQ PUSH2 0x121C JUMPI PUSH1 0x40 MLOAD PUSH4 0x2BFA23E7 PUSH1 0xE1 SHL DUP2 MSTORE PUSH1 0x1 PUSH1 0x1 PUSH1 0xA0 SHL SUB DUP7 AND PUSH1 0x4 DUP3 ADD MSTORE PUSH1 0x24 ADD PUSH2 0x544 JUMP JUMPDEST PUSH1 0x0 PUSH2 0x15C2 PUSH2 0xE87 JUMP JUMPDEST SLOAD PUSH1 0x1 PUSH1 0x40 SHL SWAP1 DIV PUSH1 0xFF AND SWAP2 SWAP1 POP JUMP JUMPDEST PUSH32 0x4A593662EE04D27B6A00EBB31BE7FE0C102C2ADE82A7C5D764F2DF05DC4E2800 PUSH2 0x15FF DUP6 DUP6 DUP6 DUP6 PUSH2 0x16E2 JUMP JUMPDEST PUSH1 0x1 PUSH1 0x1 PUSH1 0xA0 SHL SUB DUP6 AND PUSH2 0x1680 JUMPI PUSH1 0x0 DUP1 JUMPDEST DUP5 MLOAD DUP2 LT ISZERO PUSH2 0x1664 JUMPI PUSH1 0x20 DUP2 DUP2 MUL DUP6 DUP2 ADD DUP3 ADD MLOAD SWAP1 DUP8 ADD DUP3 ADD MLOAD PUSH1 0x0 SWAP1 DUP2 MSTORE SWAP2 DUP6 SWAP1 MSTORE PUSH1 0x40 DUP3 KECCAK256 DUP1 SLOAD SWAP2 SWAP3 DUP4 SWAP3 PUSH2 0x1649 SWAP1 DUP5 SWAP1 PUSH2 0x23AF JUMP JUMPDEST SWAP1 SWAP2 SSTORE POP PUSH2 0x1659 SWAP1 POP DUP2 DUP5 PUSH2 0x23AF JUMP JUMPDEST SWAP3 POP POP PUSH1 0x1 ADD PUSH2 0x1611 JUMP JUMPDEST POP DUP1 DUP3 PUSH1 0x1 ADD PUSH1 0x0 DUP3 DUP3 SLOAD PUSH2 0x1679 SWAP2 SWAP1 PUSH2 0x23AF JUMP JUMPDEST SWAP1 SWAP2 SSTORE POP POP POP JUMPDEST PUSH1 0x1 PUSH1 0x1 PUSH1 0xA0 SHL SUB DUP5 AND PUSH2 0x7B5 JUMPI PUSH1 0x0 DUP1 JUMPDEST DUP5 MLOAD DUP2 LT ISZERO PUSH2 0x16CE JUMPI PUSH1 0x20 DUP2 DUP2 MUL DUP6 DUP2 ADD DUP3 ADD MLOAD SWAP1 DUP8 ADD DUP3 ADD MLOAD PUSH1 0x0 SWAP1 DUP2 MSTORE SWAP2 DUP6 SWAP1 MSTORE PUSH1 0x40 SWAP1 SWAP2 KECCAK256 DUP1 SLOAD DUP3 SWAP1 SUB SWAP1 SSTORE SWAP2 SWAP1 SWAP2 ADD SWAP1 PUSH1 0x1 ADD PUSH2 0x1692 JUMP JUMPDEST POP PUSH1 0x1 DUP3 ADD DUP1 SLOAD SWAP2 SWAP1 SWAP2 SUB SWAP1 SSTORE POP POP POP POP POP JUMP JUMPDEST DUP1 MLOAD DUP3 MLOAD PUSH1 0x0 DUP1 MLOAD PUSH1 0x20 PUSH2 0x2411 DUP4 CODECOPY DUP2 MLOAD SWAP2 MSTORE SWAP2 EQ PUSH2 0x1721 JUMPI DUP3 MLOAD DUP3 MLOAD PUSH1 0x40 MLOAD PUSH4 0x5B059991 PUSH1 0xE0 SHL DUP2 MSTORE PUSH1 0x4 DUP2 ADD SWAP3 SWAP1 SWAP3 MSTORE PUSH1 0x24 DUP3 ADD MSTORE PUSH1 0x44 ADD PUSH2 0x544 JUMP JUMPDEST CALLER PUSH1 0x0 JUMPDEST DUP5 MLOAD DUP2 LT ISZERO PUSH2 0x1827 JUMPI PUSH1 0x20 DUP2 DUP2 MUL DUP7 DUP2 ADD DUP3 ADD MLOAD SWAP1 DUP7 ADD SWAP1 SWAP2 ADD MLOAD PUSH1 0x1 PUSH1 0x1 PUSH1 0xA0 SHL SUB DUP10 AND ISZERO PUSH2 0x17D8 JUMPI PUSH1 0x0 DUP3 DUP2 MSTORE PUSH1 0x20 DUP7 DUP2 MSTORE PUSH1 0x40 DUP1 DUP4 KECCAK256 PUSH1 0x1 PUSH1 0x1 PUSH1 0xA0 SHL SUB DUP14 AND DUP5 MSTORE SWAP1 SWAP2 MSTORE SWAP1 KECCAK256 SLOAD DUP2 DUP2 LT ISZERO PUSH2 0x17B1 JUMPI PUSH1 0x40 MLOAD PUSH4 0x3DEE4C5 PUSH1 0xE0 SHL DUP2 MSTORE PUSH1 0x1 PUSH1 0x1 PUSH1 0xA0 SHL SUB DUP12 AND PUSH1 0x4 DUP3 ADD MSTORE PUSH1 0x24 DUP2 ADD DUP3 SWAP1 MSTORE PUSH1 0x44 DUP2 ADD DUP4 SWAP1 MSTORE PUSH1 0x64 DUP2 ADD DUP5 SWAP1 MSTORE PUSH1 0x84 ADD PUSH2 0x544 JUMP JUMPDEST PUSH1 0x0 DUP4 DUP2 MSTORE PUSH1 0x20 DUP8 DUP2 MSTORE PUSH1 0x40 DUP1 DUP4 KECCAK256 PUSH1 0x1 PUSH1 0x1 PUSH1 0xA0 SHL SUB DUP15 AND DUP5 MSTORE SWAP1 SWAP2 MSTORE SWAP1 KECCAK256 SWAP1 DUP3 SWAP1 SUB SWAP1 SSTORE JUMPDEST PUSH1 0x1 PUSH1 0x1 PUSH1 0xA0 SHL SUB DUP9 AND ISZERO PUSH2 0x181D JUMPI PUSH1 0x0 DUP3 DUP2 MSTORE PUSH1 0x20 DUP7 DUP2 MSTORE PUSH1 0x40 DUP1 DUP4 KECCAK256 PUSH1 0x1 PUSH1 0x1 PUSH1 0xA0 SHL SUB DUP13 AND DUP5 MSTORE SWAP1 SWAP2 MSTORE DUP2 KECCAK256 DUP1 SLOAD DUP4 SWAP3 SWAP1 PUSH2 0x1817 SWAP1 DUP5 SWAP1 PUSH2 0x23AF JUMP JUMPDEST SWAP1 SWAP2 SSTORE POP POP JUMPDEST POP POP PUSH1 0x1 ADD PUSH2 0x1725 JUMP JUMPDEST POP DUP4 MLOAD PUSH1 0x1 SUB PUSH2 0x18A8 JUMPI PUSH1 0x20 DUP5 ADD MLOAD PUSH1 0x0 SWAP1 PUSH1 0x20 DUP6 ADD MLOAD SWAP1 SWAP2 POP DUP7 PUSH1 0x1 PUSH1 0x1 PUSH1 0xA0 SHL SUB AND DUP9 PUSH1 0x1 PUSH1 0x1 PUSH1 0xA0 SHL SUB AND DUP5 PUSH1 0x1 PUSH1 0x1 PUSH1 0xA0 SHL SUB AND PUSH32 0xC3D58168C5AE7397731D063D5BBF3D657854427343F4C083240F7AACAA2D0F62 DUP6 DUP6 PUSH1 0x40 MLOAD PUSH2 0x1899 SWAP3 SWAP2 SWAP1 SWAP2 DUP3 MSTORE PUSH1 0x20 DUP3 ADD MSTORE PUSH1 0x40 ADD SWAP1 JUMP JUMPDEST PUSH1 0x40 MLOAD DUP1 SWAP2 SUB SWAP1 LOG4 POP POP PUSH2 0x9FC JUMP JUMPDEST DUP5 PUSH1 0x1 PUSH1 0x1 PUSH1 0xA0 SHL SUB AND DUP7 PUSH1 0x1 PUSH1 0x1 PUSH1 0xA0 SHL SUB AND DUP3 PUSH1 0x1 PUSH1 0x1 PUSH1 0xA0 SHL SUB AND PUSH32 0x4A39DC06D4C0DBC64B70AF90FD698A233A518AA5D07E595D983B8C0526C8F7FB DUP8 DUP8 PUSH1 0x40 MLOAD PUSH2 0x18F7 SWAP3 SWAP2 SWAP1 PUSH2 0x23C2 JUMP JUMPDEST PUSH1 0x40 MLOAD DUP1 SWAP2 SUB SWAP1 LOG4 POP POP POP POP POP POP JUMP JUMPDEST DUP1 CALLDATALOAD PUSH1 0x1 PUSH1 0x1 PUSH1 0xA0 SHL SUB DUP2 AND DUP2 EQ PUSH2 0x191E JUMPI PUSH1 0x0 DUP1 REVERT JUMPDEST SWAP2 SWAP1 POP JUMP JUMPDEST PUSH1 0x0 DUP1 PUSH1 0x40 DUP4 DUP6 SUB SLT ISZERO PUSH2 0x1936 JUMPI PUSH1 0x0 DUP1 REVERT JUMPDEST PUSH2 0x193F DUP4 PUSH2 0x1907 JUMP JUMPDEST SWAP5 PUSH1 0x20 SWAP4 SWAP1 SWAP4 ADD CALLDATALOAD SWAP4 POP POP POP JUMP JUMPDEST PUSH1 0x1 PUSH1 0x1 PUSH1 0xE0 SHL SUB NOT DUP2 AND DUP2 EQ PUSH2 0xDFD JUMPI PUSH1 0x0 DUP1 REVERT JUMPDEST PUSH1 0x0 PUSH1 0x20 DUP3 DUP5 SUB SLT ISZERO PUSH2 0x1975 JUMPI PUSH1 0x0 DUP1 REVERT JUMPDEST DUP2 CALLDATALOAD PUSH2 0x1980 DUP2 PUSH2 0x194D JUMP JUMPDEST SWAP4 SWAP3 POP POP POP JUMP JUMPDEST PUSH4 0x4E487B71 PUSH1 0xE0 SHL PUSH1 0x0 MSTORE PUSH1 0x41 PUSH1 0x4 MSTORE PUSH1 0x24 PUSH1 0x0 REVERT JUMPDEST PUSH1 0x40 MLOAD PUSH1 0x1F DUP3 ADD PUSH1 0x1F NOT AND DUP2 ADD PUSH1 0x1 PUSH1 0x1 PUSH1 0x40 SHL SUB DUP2 GT DUP3 DUP3 LT OR ISZERO PUSH2 0x19C5 JUMPI PUSH2 0x19C5 PUSH2 0x1987 JUMP JUMPDEST PUSH1 0x40 MSTORE SWAP2 SWAP1 POP JUMP JUMPDEST PUSH1 0x0 DUP3 PUSH1 0x1F DUP4 ADD SLT PUSH2 0x19DE JUMPI PUSH1 0x0 DUP1 REVERT JUMPDEST DUP2 CALLDATALOAD PUSH1 0x1 PUSH1 0x1 PUSH1 0x40 SHL SUB DUP2 GT ISZERO PUSH2 0x19F7 JUMPI PUSH2 0x19F7 PUSH2 0x1987 JUMP JUMPDEST PUSH2 0x1A0A PUSH1 0x1F DUP3 ADD PUSH1 0x1F NOT AND PUSH1 0x20 ADD PUSH2 0x199D JUMP JUMPDEST DUP2 DUP2 MSTORE DUP5 PUSH1 0x20 DUP4 DUP7 ADD ADD GT ISZERO PUSH2 0x1A1F JUMPI PUSH1 0x0 DUP1 REVERT JUMPDEST DUP2 PUSH1 0x20 DUP6 ADD PUSH1 0x20 DUP4 ADD CALLDATACOPY PUSH1 0x0 SWAP2 DUP2 ADD PUSH1 0x20 ADD SWAP2 SWAP1 SWAP2 MSTORE SWAP4 SWAP3 POP POP POP JUMP JUMPDEST PUSH1 0x0 PUSH1 0x20 DUP3 DUP5 SUB SLT ISZERO PUSH2 0x1A4E JUMPI PUSH1 0x0 DUP1 REVERT JUMPDEST DUP2 CALLDATALOAD PUSH1 0x1 PUSH1 0x1 PUSH1 0x40 SHL SUB DUP2 GT ISZERO PUSH2 0x1A64 JUMPI PUSH1 0x0 DUP1 REVERT JUMPDEST PUSH2 0x1A70 DUP5 DUP3 DUP6 ADD PUSH2 0x19CD JUMP JUMPDEST SWAP5 SWAP4 POP POP POP POP JUMP JUMPDEST PUSH1 0x0 DUP1 PUSH1 0x40 DUP4 DUP6 SUB SLT ISZERO PUSH2 0x1A8B JUMPI PUSH1 0x0 DUP1 REVERT JUMPDEST DUP3 CALLDATALOAD SWAP2 POP PUSH1 0x20 DUP4 ADD CALLDATALOAD PUSH1 0x1 PUSH1 0x1 PUSH1 0x40 SHL SUB DUP2 GT ISZERO PUSH2 0x1AA8 JUMPI PUSH1 0x0 DUP1 REVERT JUMPDEST PUSH2 0x1AB4 DUP6 DUP3 DUP7 ADD PUSH2 0x19CD JUMP JUMPDEST SWAP2 POP POP SWAP3 POP SWAP3 SWAP1 POP JUMP JUMPDEST PUSH1 0x0 PUSH1 0x20 DUP3 DUP5 SUB SLT ISZERO PUSH2 0x1AD0 JUMPI PUSH1 0x0 DUP1 REVERT JUMPDEST POP CALLDATALOAD SWAP2 SWAP1 POP JUMP JUMPDEST PUSH1 0x0 JUMPDEST DUP4 DUP2 LT ISZERO PUSH2 0x1AF2 JUMPI DUP2 DUP2 ADD MLOAD DUP4 DUP3 ADD MSTORE PUSH1 0x20 ADD PUSH2 0x1ADA JUMP JUMPDEST POP POP PUSH1 0x0 SWAP2 ADD MSTORE JUMP JUMPDEST PUSH1 0x0 DUP2 MLOAD DUP1 DUP5 MSTORE PUSH2 0x1B13 DUP2 PUSH1 0x20 DUP7 ADD PUSH1 0x20 DUP7 ADD PUSH2 0x1AD7 JUMP JUMPDEST PUSH1 0x1F ADD PUSH1 0x1F NOT AND SWAP3 SWAP1 SWAP3 ADD PUSH1 0x20 ADD SWAP3 SWAP2 POP POP JUMP JUMPDEST PUSH1 0x20 DUP2 MSTORE PUSH1 0x0 PUSH2 0x1980 PUSH1 0x20 DUP4 ADD DUP5 PUSH2 0x1AFB JUMP JUMPDEST PUSH1 0x0 PUSH1 0x1 PUSH1 0x1 PUSH1 0x40 SHL SUB DUP3 GT ISZERO PUSH2 0x1B53 JUMPI PUSH2 0x1B53 PUSH2 0x1987 JUMP JUMPDEST POP PUSH1 0x5 SHL PUSH1 0x20 ADD SWAP1 JUMP JUMPDEST PUSH1 0x0 DUP3 PUSH1 0x1F DUP4 ADD SLT PUSH2 0x1B6E JUMPI PUSH1 0x0 DUP1 REVERT JUMPDEST DUP2 CALLDATALOAD PUSH1 0x20 PUSH2 0x1B83 PUSH2 0x1B7E DUP4 PUSH2 0x1B3A JUMP JUMPDEST PUSH2 0x199D JUMP JUMPDEST DUP1 DUP4 DUP3 MSTORE PUSH1 0x20 DUP3 ADD SWAP2 POP PUSH1 0x20 DUP5 PUSH1 0x5 SHL DUP8 ADD ADD SWAP4 POP DUP7 DUP5 GT ISZERO PUSH2 0x1BA5 JUMPI PUSH1 0x0 DUP1 REVERT JUMPDEST PUSH1 0x20 DUP7 ADD JUMPDEST DUP5 DUP2 LT ISZERO PUSH2 0x1BC1 JUMPI DUP1 CALLDATALOAD DUP4 MSTORE SWAP2 DUP4 ADD SWAP2 DUP4 ADD PUSH2 0x1BAA JUMP JUMPDEST POP SWAP7 SWAP6 POP POP POP POP POP POP JUMP JUMPDEST PUSH1 0x0 DUP1 PUSH1 0x0 DUP1 PUSH1 0x80 DUP6 DUP8 SUB SLT ISZERO PUSH2 0x1BE2 JUMPI PUSH1 0x0 DUP1 REVERT JUMPDEST PUSH2 0x1BEB DUP6 PUSH2 0x1907 JUMP JUMPDEST SWAP4 POP PUSH1 0x20 DUP6 ADD CALLDATALOAD PUSH1 0x1 PUSH1 0x1 PUSH1 0x40 SHL SUB DUP1 DUP3 GT ISZERO PUSH2 0x1C07 JUMPI PUSH1 0x0 DUP1 REVERT JUMPDEST PUSH2 0x1C13 DUP9 DUP4 DUP10 ADD PUSH2 0x1B5D JUMP JUMPDEST SWAP5 POP PUSH1 0x40 DUP8 ADD CALLDATALOAD SWAP2 POP DUP1 DUP3 GT ISZERO PUSH2 0x1C29 JUMPI PUSH1 0x0 DUP1 REVERT JUMPDEST PUSH2 0x1C35 DUP9 DUP4 DUP10 ADD PUSH2 0x1B5D JUMP JUMPDEST SWAP4 POP PUSH1 0x60 DUP8 ADD CALLDATALOAD SWAP2 POP DUP1 DUP3 GT ISZERO PUSH2 0x1C4B JUMPI PUSH1 0x0 DUP1 REVERT JUMPDEST POP PUSH2 0x1C58 DUP8 DUP3 DUP9 ADD PUSH2 0x19CD JUMP JUMPDEST SWAP2 POP POP SWAP3 SWAP6 SWAP2 SWAP5 POP SWAP3 POP JUMP JUMPDEST PUSH1 0x0 DUP1 PUSH1 0x0 DUP1 PUSH1 0x80 DUP6 DUP8 SUB SLT ISZERO PUSH2 0x1C7A JUMPI PUSH1 0x0 DUP1 REVERT JUMPDEST PUSH2 0x1C83 DUP6 PUSH2 0x1907 JUMP JUMPDEST SWAP4 POP PUSH2 0x1C91 PUSH1 0x20 DUP7 ADD PUSH2 0x1907 JUMP JUMPDEST SWAP3 POP PUSH1 0x40 DUP6 ADD CALLDATALOAD PUSH1 0x1 PUSH1 0x1 PUSH1 0x40 SHL SUB DUP1 DUP3 GT ISZERO PUSH2 0x1CAD JUMPI PUSH1 0x0 DUP1 REVERT JUMPDEST PUSH2 0x1C35 DUP9 DUP4 DUP10 ADD PUSH2 0x19CD JUMP JUMPDEST PUSH1 0x0 DUP1 PUSH1 0x0 DUP1 PUSH1 0x0 PUSH1 0xA0 DUP7 DUP9 SUB SLT ISZERO PUSH2 0x1CD1 JUMPI PUSH1 0x0 DUP1 REVERT JUMPDEST PUSH2 0x1CDA DUP7 PUSH2 0x1907 JUMP JUMPDEST SWAP5 POP PUSH2 0x1CE8 PUSH1 0x20 DUP8 ADD PUSH2 0x1907 JUMP JUMPDEST SWAP4 POP PUSH1 0x40 DUP7 ADD CALLDATALOAD PUSH1 0x1 PUSH1 0x1 PUSH1 0x40 SHL SUB DUP1 DUP3 GT ISZERO PUSH2 0x1D04 JUMPI PUSH1 0x0 DUP1 REVERT JUMPDEST PUSH2 0x1D10 DUP10 DUP4 DUP11 ADD PUSH2 0x1B5D JUMP JUMPDEST SWAP5 POP PUSH1 0x60 DUP9 ADD CALLDATALOAD SWAP2 POP DUP1 DUP3 GT ISZERO PUSH2 0x1D26 JUMPI PUSH1 0x0 DUP1 REVERT JUMPDEST PUSH2 0x1D32 DUP10 DUP4 DUP11 ADD PUSH2 0x1B5D JUMP JUMPDEST SWAP4 POP PUSH1 0x80 DUP9 ADD CALLDATALOAD SWAP2 POP DUP1 DUP3 GT ISZERO PUSH2 0x1D48 JUMPI PUSH1 0x0 DUP1 REVERT JUMPDEST POP PUSH2 0x1D55 DUP9 DUP3 DUP10 ADD PUSH2 0x19CD JUMP JUMPDEST SWAP2 POP POP SWAP3 SWAP6 POP SWAP3 SWAP6 SWAP1 SWAP4 POP JUMP JUMPDEST PUSH1 0x0 DUP1 PUSH1 0x40 DUP4 DUP6 SUB SLT ISZERO PUSH2 0x1D75 JUMPI PUSH1 0x0 DUP1 REVERT JUMPDEST DUP3 CALLDATALOAD SWAP2 POP PUSH2 0x1D85 PUSH1 0x20 DUP5 ADD PUSH2 0x1907 JUMP JUMPDEST SWAP1 POP SWAP3 POP SWAP3 SWAP1 POP JUMP JUMPDEST PUSH1 0x0 DUP1 PUSH1 0x40 DUP4 DUP6 SUB SLT ISZERO PUSH2 0x1DA1 JUMPI PUSH1 0x0 DUP1 REVERT JUMPDEST DUP3 CALLDATALOAD PUSH1 0x1 PUSH1 0x1 PUSH1 0x40 SHL SUB DUP1 DUP3 GT ISZERO PUSH2 0x1DB8 JUMPI PUSH1 0x0 DUP1 REVERT JUMPDEST DUP2 DUP6 ADD SWAP2 POP DUP6 PUSH1 0x1F DUP4 ADD SLT PUSH2 0x1DCC JUMPI PUSH1 0x0 DUP1 REVERT JUMPDEST DUP2 CALLDATALOAD PUSH1 0x20 PUSH2 0x1DDC PUSH2 0x1B7E DUP4 PUSH2 0x1B3A JUMP JUMPDEST DUP3 DUP2 MSTORE PUSH1 0x5 SWAP3 SWAP1 SWAP3 SHL DUP5 ADD DUP2 ADD SWAP2 DUP2 DUP2 ADD SWAP1 DUP10 DUP5 GT ISZERO PUSH2 0x1DFB JUMPI PUSH1 0x0 DUP1 REVERT JUMPDEST SWAP5 DUP3 ADD SWAP5 JUMPDEST DUP4 DUP7 LT ISZERO PUSH2 0x1E20 JUMPI PUSH2 0x1E11 DUP7 PUSH2 0x1907 JUMP JUMPDEST DUP3 MSTORE SWAP5 DUP3 ADD SWAP5 SWAP1 DUP3 ADD SWAP1 PUSH2 0x1E00 JUMP JUMPDEST SWAP7 POP POP DUP7 ADD CALLDATALOAD SWAP3 POP POP DUP1 DUP3 GT ISZERO PUSH2 0x1E36 JUMPI PUSH1 0x0 DUP1 REVERT JUMPDEST POP PUSH2 0x1AB4 DUP6 DUP3 DUP7 ADD PUSH2 0x1B5D JUMP JUMPDEST PUSH1 0x0 DUP2 MLOAD DUP1 DUP5 MSTORE PUSH1 0x20 DUP1 DUP6 ADD SWAP5 POP PUSH1 0x20 DUP5 ADD PUSH1 0x0 JUMPDEST DUP4 DUP2 LT ISZERO PUSH2 0x1E74 JUMPI DUP2 MLOAD DUP8 MSTORE SWAP6 DUP3 ADD SWAP6 SWAP1 DUP3 ADD SWAP1 PUSH1 0x1 ADD PUSH2 0x1E58 JUMP JUMPDEST POP SWAP5 SWAP6 SWAP5 POP POP POP POP POP JUMP JUMPDEST PUSH1 0x20 DUP2 MSTORE PUSH1 0x0 PUSH2 0x1980 PUSH1 0x20 DUP4 ADD DUP5 PUSH2 0x1E43 JUMP JUMPDEST PUSH1 0x0 DUP1 PUSH1 0x0 PUSH1 0x60 DUP5 DUP7 SUB SLT ISZERO PUSH2 0x1EA7 JUMPI PUSH1 0x0 DUP1 REVERT JUMPDEST PUSH2 0x1EB0 DUP5 PUSH2 0x1907 JUMP JUMPDEST SWAP3 POP PUSH1 0x20 DUP5 ADD CALLDATALOAD PUSH1 0x1 PUSH1 0x1 PUSH1 0x40 SHL SUB DUP1 DUP3 GT ISZERO PUSH2 0x1ECC JUMPI PUSH1 0x0 DUP1 REVERT JUMPDEST PUSH2 0x1ED8 DUP8 DUP4 DUP9 ADD PUSH2 0x1B5D JUMP JUMPDEST SWAP4 POP PUSH1 0x40 DUP7 ADD CALLDATALOAD SWAP2 POP DUP1 DUP3 GT ISZERO PUSH2 0x1EEE JUMPI PUSH1 0x0 DUP1 REVERT JUMPDEST POP PUSH2 0x1EFB DUP7 DUP3 DUP8 ADD PUSH2 0x1B5D JUMP JUMPDEST SWAP2 POP POP SWAP3 POP SWAP3 POP SWAP3 JUMP JUMPDEST PUSH1 0x0 DUP1 PUSH1 0x0 DUP1 PUSH1 0x80 DUP6 DUP8 SUB SLT ISZERO PUSH2 0x1F1B JUMPI PUSH1 0x0 DUP1 REVERT JUMPDEST PUSH2 0x1F24 DUP6 PUSH2 0x1907 JUMP JUMPDEST SWAP4 POP PUSH1 0x20 DUP6 ADD CALLDATALOAD SWAP3 POP PUSH1 0x40 DUP6 ADD CALLDATALOAD SWAP2 POP PUSH1 0x60 DUP6 ADD CALLDATALOAD PUSH1 0x1 PUSH1 0x1 PUSH1 0x40 SHL SUB DUP2 GT ISZERO PUSH2 0x1F4D JUMPI PUSH1 0x0 DUP1 REVERT JUMPDEST PUSH2 0x1C58 DUP8 DUP3 DUP9 ADD PUSH2 0x19CD JUMP JUMPDEST PUSH1 0x0 DUP1 PUSH1 0x40 DUP4 DUP6 SUB SLT ISZERO PUSH2 0x1F6C JUMPI PUSH1 0x0 DUP1 REVERT JUMPDEST PUSH2 0x1F75 DUP4 PUSH2 0x1907 JUMP JUMPDEST SWAP2 POP PUSH1 0x20 DUP4 ADD CALLDATALOAD DUP1 ISZERO ISZERO DUP2 EQ PUSH2 0x1F8A JUMPI PUSH1 0x0 DUP1 REVERT JUMPDEST DUP1 SWAP2 POP POP SWAP3 POP SWAP3 SWAP1 POP JUMP JUMPDEST PUSH1 0x0 DUP1 PUSH1 0x0 DUP1 PUSH1 0x80 DUP6 DUP8 SUB SLT ISZERO PUSH2 0x1FAB JUMPI PUSH1 0x0 DUP1 REVERT JUMPDEST PUSH2 0x1FB4 DUP6 PUSH2 0x1907 JUMP JUMPDEST SWAP4 POP PUSH1 0x20 DUP6 ADD CALLDATALOAD SWAP3 POP PUSH1 0x40 DUP6 ADD CALLDATALOAD PUSH1 0x1 PUSH1 0x1 PUSH1 0x40 SHL SUB DUP1 DUP3 GT ISZERO PUSH2 0x1CAD JUMPI PUSH1 0x0 DUP1 REVERT JUMPDEST PUSH1 0x0 DUP1 PUSH1 0x40 DUP4 DUP6 SUB SLT ISZERO PUSH2 0x1FEA JUMPI PUSH1 0x0 DUP1 REVERT JUMPDEST PUSH2 0x1FF3 DUP4 PUSH2 0x1907 JUMP JUMPDEST SWAP2 POP PUSH2 0x1D85 PUSH1 0x20 DUP5 ADD PUSH2 0x1907 JUMP JUMPDEST PUSH1 0x0 DUP1 PUSH1 0x0 DUP1 PUSH1 0x0 PUSH1 0xA0 DUP7 DUP9 SUB SLT ISZERO PUSH2 0x2019 JUMPI PUSH1 0x0 DUP1 REVERT JUMPDEST PUSH2 0x2022 DUP7 PUSH2 0x1907 JUMP JUMPDEST SWAP5 POP PUSH2 0x2030 PUSH1 0x20 DUP8 ADD PUSH2 0x1907 JUMP JUMPDEST SWAP4 POP PUSH1 0x40 DUP7 ADD CALLDATALOAD SWAP3 POP PUSH1 0x60 DUP7 ADD CALLDATALOAD SWAP2 POP PUSH1 0x80 DUP7 ADD CALLDATALOAD PUSH1 0x1 PUSH1 0x1 PUSH1 0x40 SHL SUB DUP2 GT ISZERO PUSH2 0x2059 JUMPI PUSH1 0x0 DUP1 REVERT JUMPDEST PUSH2 0x1D55 DUP9 DUP3 DUP10 ADD PUSH2 0x19CD JUMP JUMPDEST PUSH1 0x0 DUP1 PUSH1 0x0 PUSH1 0x60 DUP5 DUP7 SUB SLT ISZERO PUSH2 0x207A JUMPI PUSH1 0x0 DUP1 REVERT JUMPDEST PUSH2 0x2083 DUP5 PUSH2 0x1907 JUMP JUMPDEST SWAP6 PUSH1 0x20 DUP6 ADD CALLDATALOAD SWAP6 POP PUSH1 0x40 SWAP1 SWAP5 ADD CALLDATALOAD SWAP4 SWAP3 POP POP POP JUMP JUMPDEST PUSH1 0x1 DUP2 DUP2 SHR SWAP1 DUP3 AND DUP1 PUSH2 0x20AC JUMPI PUSH1 0x7F DUP3 AND SWAP2 POP JUMPDEST PUSH1 0x20 DUP3 LT DUP2 SUB PUSH2 0x20CC JUMPI PUSH4 0x4E487B71 PUSH1 0xE0 SHL PUSH1 0x0 MSTORE PUSH1 0x22 PUSH1 0x4 MSTORE PUSH1 0x24 PUSH1 0x0 REVERT JUMPDEST POP SWAP2 SWAP1 POP JUMP JUMPDEST PUSH1 0x1F DUP3 GT ISZERO PUSH2 0x4B7 JUMPI PUSH1 0x0 DUP2 PUSH1 0x0 MSTORE PUSH1 0x20 PUSH1 0x0 KECCAK256 PUSH1 0x1F DUP6 ADD PUSH1 0x5 SHR DUP2 ADD PUSH1 0x20 DUP7 LT ISZERO PUSH2 0x20FB JUMPI POP DUP1 JUMPDEST PUSH1 0x1F DUP6 ADD PUSH1 0x5 SHR DUP3 ADD SWAP2 POP JUMPDEST DUP2 DUP2 LT ISZERO PUSH2 0x9FC JUMPI DUP3 DUP2 SSTORE PUSH1 0x1 ADD PUSH2 0x2107 JUMP JUMPDEST DUP2 MLOAD PUSH1 0x1 PUSH1 0x1 PUSH1 0x40 SHL SUB DUP2 GT ISZERO PUSH2 0x2133 JUMPI PUSH2 0x2133 PUSH2 0x1987 JUMP JUMPDEST PUSH2 0x2147 DUP2 PUSH2 0x2141 DUP5 SLOAD PUSH2 0x2098 JUMP JUMPDEST DUP5 PUSH2 0x20D2 JUMP JUMPDEST PUSH1 0x20 DUP1 PUSH1 0x1F DUP4 GT PUSH1 0x1 DUP2 EQ PUSH2 0x217C JUMPI PUSH1 0x0 DUP5 ISZERO PUSH2 0x2164 JUMPI POP DUP6 DUP4 ADD MLOAD JUMPDEST PUSH1 0x0 NOT PUSH1 0x3 DUP7 SWAP1 SHL SHR NOT AND PUSH1 0x1 DUP6 SWAP1 SHL OR DUP6 SSTORE PUSH2 0x9FC JUMP JUMPDEST PUSH1 0x0 DUP6 DUP2 MSTORE PUSH1 0x20 DUP2 KECCAK256 PUSH1 0x1F NOT DUP7 AND SWAP2 JUMPDEST DUP3 DUP2 LT ISZERO PUSH2 0x21AB JUMPI DUP9 DUP7 ADD MLOAD DUP3 SSTORE SWAP5 DUP5 ADD SWAP5 PUSH1 0x1 SWAP1 SWAP2 ADD SWAP1 DUP5 ADD PUSH2 0x218C JUMP JUMPDEST POP DUP6 DUP3 LT ISZERO PUSH2 0x21C9 JUMPI DUP8 DUP6 ADD MLOAD PUSH1 0x0 NOT PUSH1 0x3 DUP9 SWAP1 SHL PUSH1 0xF8 AND SHR NOT AND DUP2 SSTORE JUMPDEST POP POP POP POP POP PUSH1 0x1 SWAP1 DUP2 SHL ADD SWAP1 SSTORE POP JUMP JUMPDEST PUSH1 0x0 DUP4 MLOAD PUSH2 0x21EB DUP2 DUP5 PUSH1 0x20 DUP9 ADD PUSH2 0x1AD7 JUMP JUMPDEST DUP4 MLOAD SWAP1 DUP4 ADD SWAP1 PUSH2 0x21FF DUP2 DUP4 PUSH1 0x20 DUP9 ADD PUSH2 0x1AD7 JUMP JUMPDEST ADD SWAP5 SWAP4 POP POP POP POP JUMP JUMPDEST PUSH4 0x4E487B71 PUSH1 0xE0 SHL PUSH1 0x0 MSTORE PUSH1 0x32 PUSH1 0x4 MSTORE PUSH1 0x24 PUSH1 0x0 REVERT JUMPDEST PUSH1 0x20 DUP1 DUP3 MSTORE PUSH1 0x31 SWAP1 DUP3 ADD MSTORE PUSH32 0x455243313135354D657461646174613A206D696E7420717565727920666F7220 PUSH1 0x40 DUP3 ADD MSTORE PUSH17 0x3737B732BC34B9BA32B73A103A37B5B2B7 PUSH1 0x79 SHL PUSH1 0x60 DUP3 ADD MSTORE PUSH1 0x80 ADD SWAP1 JUMP JUMPDEST PUSH1 0x20 DUP1 DUP3 MSTORE PUSH1 0x31 SWAP1 DUP3 ADD MSTORE PUSH32 0x455243313135354D657461646174613A206275726E20717565727920666F7220 PUSH1 0x40 DUP3 ADD MSTORE PUSH17 0x3737B732BC34B9BA32B73A103A37B5B2B7 PUSH1 0x79 SHL PUSH1 0x60 DUP3 ADD MSTORE PUSH1 0x80 ADD SWAP1 JUMP JUMPDEST PUSH4 0x4E487B71 PUSH1 0xE0 SHL PUSH1 0x0 MSTORE PUSH1 0x11 PUSH1 0x4 MSTORE PUSH1 0x24 PUSH1 0x0 REVERT JUMPDEST PUSH1 0x0 PUSH1 0x1 DUP3 ADD PUSH2 0x22E8 JUMPI PUSH2 0x22E8 PUSH2 0x22C0 JUMP JUMPDEST POP PUSH1 0x1 ADD SWAP1 JUMP JUMPDEST PUSH1 0x1 PUSH1 0x1 PUSH1 0xA0 SHL SUB DUP7 DUP2 AND DUP3 MSTORE DUP6 AND PUSH1 0x20 DUP3 ADD MSTORE PUSH1 0x40 DUP2 ADD DUP5 SWAP1 MSTORE PUSH1 0x60 DUP2 ADD DUP4 SWAP1 MSTORE PUSH1 0xA0 PUSH1 0x80 DUP3 ADD DUP2 SWAP1 MSTORE PUSH1 0x0 SWAP1 PUSH2 0x2329 SWAP1 DUP4 ADD DUP5 PUSH2 0x1AFB JUMP JUMPDEST SWAP8 SWAP7 POP POP POP POP POP POP POP JUMP JUMPDEST PUSH1 0x0 PUSH1 0x20 DUP3 DUP5 SUB SLT ISZERO PUSH2 0x2346 JUMPI PUSH1 0x0 DUP1 REVERT JUMPDEST DUP2 MLOAD PUSH2 0x1980 DUP2 PUSH2 0x194D JUMP JUMPDEST PUSH1 0x1 PUSH1 0x1 PUSH1 0xA0 SHL SUB DUP7 DUP2 AND DUP3 MSTORE DUP6 AND PUSH1 0x20 DUP3 ADD MSTORE PUSH1 0xA0 PUSH1 0x40 DUP3 ADD DUP2 SWAP1 MSTORE PUSH1 0x0 SWAP1 PUSH2 0x237D SWAP1 DUP4 ADD DUP7 PUSH2 0x1E43 JUMP JUMPDEST DUP3 DUP2 SUB PUSH1 0x60 DUP5 ADD MSTORE PUSH2 0x238F DUP2 DUP7 PUSH2 0x1E43 JUMP JUMPDEST SWAP1 POP DUP3 DUP2 SUB PUSH1 0x80 DUP5 ADD MSTORE PUSH2 0x23A3 DUP2 DUP6 PUSH2 0x1AFB JUMP JUMPDEST SWAP9 SWAP8 POP POP POP POP POP POP POP POP JUMP JUMPDEST DUP1 DUP3 ADD DUP1 DUP3 GT ISZERO PUSH2 0x479 JUMPI PUSH2 0x479 PUSH2 0x22C0 JUMP JUMPDEST PUSH1 0x40 DUP2 MSTORE PUSH1 0x0 PUSH2 0x23D5 PUSH1 0x40 DUP4 ADD DUP6 PUSH2 0x1E43 JUMP JUMPDEST DUP3 DUP2 SUB PUSH1 0x20 DUP5 ADD MSTORE PUSH2 0x23E7 DUP2 DUP6 PUSH2 0x1E43 JUMP JUMPDEST SWAP6 SWAP5 POP POP POP POP POP JUMP INVALID 0xAF 0x29 0xD DUP7 DUP1 DUP3 EXP 0xAD SWAP3 0x28 SSTORE RETURN SWAP12 ADDRESS PUSH1 0x97 0xB2 0xE 0x28 PUSH24 0x4D6C1AD35A20325630C3A02C88BE536D5240C274A3B1D3A1 0xBE SLOAD BASEFEE 0x2F 0xD9 0xCA LOG2 SWAP5 CREATE DUP13 PUSH3 0xA7CDE5 PUSH10 0xF49A3C450002DD7BC7DE 0xC4 0xDC 0xEE 0xDD 0xA7 PUSH22 0xE58DD541E08A116C6C53815C0BD028192F7B626800A2 PUSH5 0x6970667358 0x22 SLT KECCAK256 0xFB SWAP11 PUSH31 0x6298AEAFC1F60B350ABB3031DB9A2F43E725633EC699A26E7B31C922D56473 PUSH16 0x6C634300081800330000000000000000 "},"methodIdentifiers":{"DEFAULT_ADMIN_ROLE()":"a217fddf","MANAGER()":"1b2df850","balanceOf(address,uint256)":"00fdd58e","balanceOfBatch(address[],uint256[])":"4e1273f4","burn(address,uint256,uint256)":"f5298aca","burnBatch(address,uint256[],uint256[])":"6b20c454","create(address,uint256,string,bytes)":"e38e3b24","exists(uint256)":"4f558e79","getRoleAdmin(bytes32)":"248a9ca3","grantRole(bytes32,address)":"2f2ff15d","hasRole(bytes32,address)":"91d14854","initialize(address,address,string,string)":"2016a0d2","isApprovedForAll(address,address)":"e985e9c5","mint(address,uint256,uint256,bytes)":"731133e9","mintBatch(address,uint256[],uint256[],bytes)":"1f7fdffa","renounceRole(bytes32,address)":"36568abe","revokeRole(bytes32,address)":"d547741f","safeBatchTransferFrom(address,address,uint256[],uint256[],bytes)":"2eb2c2d6","safeTransferFrom(address,address,uint256,uint256,bytes)":"f242432a","setApprovalForAll(address,bool)":"a22cb465","setURI(string)":"02fe5305","supportsInterface(bytes4)":"01ffc9a7","t11()":"aa835871","totalSupply()":"18160ddd","totalSupply(uint256)":"bd85b039","updateUri(uint256,string)":"05751204","uri(uint256)":"0e89341c"}},"storageLayout":{"storage":[{"astId":7241,"contract":"contracts/erc1155.sol:MyToken","label":"name","offset":0,"slot":"0","type":"t_string_storage"},{"astId":7243,"contract":"contracts/erc1155.sol:MyToken","label":"symbol","offset":0,"slot":"1","type":"t_string_storage"},{"astId":7245,"contract":"contracts/erc1155.sol:MyToken","label":"next_id","offset":0,"slot":"2","type":"t_uint256"},{"astId":7247,"contract":"contracts/erc1155.sol:MyToken","label":"base_uri","offset":0,"slot":"3","type":"t_string_storage"},{"astId":7249,"contract":"contracts/erc1155.sol:MyToken","label":"t11","offset":0,"slot":"4","type":"t_uint256"},{"astId":7253,"contract":"contracts/erc1155.sol:MyToken","label":"token_uri","offset":0,"slot":"5","type":"t_mapping(t_uint256,t_string_storage)"}],"types":{"t_mapping(t_uint256,t_string_storage)":{"encoding":"mapping","key":"t_uint256","label":"mapping(uint256 => string)","numberOfBytes":"32","value":"t_string_storage"},"t_string_storage":{"encoding":"bytes","label":"string","numberOfBytes":"32"},"t_uint256":{"encoding":"inplace","label":"uint256","numberOfBytes":"32"}}}}}}